S01000005761746572696E672E73726563D3
S11300000C9436000C945E000C945E000C945E001C
S11300100C945E000C945E000C945E000C945E00E4
S11300200C945E000C945E000C945E000C94EF1B28
S11300300C945E000C945E000C945E000C945E00C4
S11300400C943C010C945E000C94E51D0C941D1E54
S11300500C945E000C945E000C945E000C945E00A4
S11300600C945E000C945E000701611E11241FBEF7
S1130070CFEFD8E0DEBFCDBF11E0A0E0B1E0E6EA0B
S1130080F8E402C005900D92AC3CB107D9F728E022
S1130090ACECB1E001C01D92A33BB207E1F710E064
S11300A0C6E3D0E004C02197FE010E94DF22C433DE
S11300B0D107C9F70E940E010C9451240C9400003E
S11300C0CF93DF93CDB7DEB76C970FB6F894DEBF4E
S11300D00FBECDBF019709F091C06F3F7F4F09F06C
S11300E08DC01092230210922402109225021092C5
S11300F0260261E070E088E690E00E94F42290938A
S1130100200280931F0261E070E088E290E00E9488
S1130110F42290931C0280931B0287B1846087B9F8
S113012087B18B7F87B94CE150E060E070E0CE018D
S113013001960E944124898D9A8DAB8DBC8D805C83
S11301409F4CAA46B10981349D45A64CB10580F166
S113015040E050E060EE71E449835A836B837C8312
S113016080E090E0A8EDB1E48D839E83AF83B887EF
S113017049875A876B877C878D879E87AF87B88B23
S113018080E891E5A1E0B0E0898B9A8BAB8BBC8BC6
S11301908CE390E0A0E0B0E08D8B9E8BAF8BB88FAA
S11301A080E094E2A4EFB0E0898F9A8FAB8FBC8F8C
S11301B08CE1FE013196ADEFB1E001900D928A958C
S11301C0E1F7ECECF1E010821182128213821482C6
S11301D0158216821782108611861286138614865B
S11301E01586168681E090E0A0E0B0E08787908BCA
S11301F0A18BB28B838B948BA58BB68B6C960FB62D
S1130200F894DEBF0FBECDBFDF91CF9108956FEF9D
S11302107FEF81E090E00E9460000895E12CF12CD2
S113022001E020E030E045E550E06CE471E08EE967
S113023091E00E94021620E030E045E550E066E0DF
S113024071E082EC9BE00E94021620E030E045E57C
S113025050E066E471E08DEB92E10E94021620E02A
S113026030E04AEA50E062E471E083EA96E00E94FA
S113027002160E940F17FFCF1F920F920FB60F9214
S113028011242F933F934F935F936F937F938F9397
S11302909F93AF93EF93FF93ECECF1E027813085CC
S11302A0418552856385748585859685A1E00E9484
S11302B0C122278330874187528763877487858764
S11302C09687FF91EF91AF919F918F917F916F915D
S11302D05F914F913F912F910F900FBE0F901F9000
S11302E01895CF93DF93CDB7DEB728970FB6F89460
S11302F0DEBF0FBECDBFDC01FB012C9111963C91FA
S1130300119712969C91129713968C913A839B8322
S11303108C8380814181328193814E833F833A81F2
S11303204B815C81682F7E818F8128960FB6F8946B
S1130330DEBF0FBECDBFDF91CF910895CF93DF9382
S1130340CDB7DEB7A7970FB6F894DEBF0FBECDBF0B
S113035088EC90E00E94791810926E000CEC11E089
S113036020E04FEF5FEF60E070E0D8019F968D9141
S11303709C91D0970E94D614F80183819481A58121
S1130380B681898F9A8FAB8FBC8FECECF1E08780BC
S1130390908421852D8F82858E8FA385AF8FB48520
S11303A0B8A3258529A386858AA32788308C418C08
S11303B0528C638C748CB58DA68D282D392D4D8D62
S11303C05E8D6F8D78A189A19AA1A22CB32CC42C27
S11303D0D52CE62CF72C0B2F1A2F0E94D622B0F026
S11303E00E94CD2227833087418752876387748791
S11303F08587968783819481A581B6810196A11D05
S1130400B11D83839483A583B683BFCF0F2EFCECE9
S11304106F2EF1E07F2EF02DD3015F964C905F9705
S113042090963C90909791962C9091979296BC912F
S1130430BBA3F301F3A1FCA3D3019496BC91BDA388
S1130440F301F5A1FEA3D30196965C90A42CB32CE2
S1130450C22CDBA0ECA0FDA00F2F152D282D392DCB
S11304604D8D5E8D6F8D78A189A19AA10E945B222A
S11304702FA3F3012083282D392D4D8D5E8D6F8D93
S113048078A189A19AA10E945922622F732F842FE7
S1130490952FFFA1F83118F027E12093CC010CEC43
S11304A011E0D80197962D913D914D915C919A97C9
S11304B00E942C22E22F9B01AC01D8011196EC93EF
S11304C0EC3318F08BE38093CD010CEC11E0F801D0
S11304D067857089818992890E941C2223893489C5
S11304E0458956890E942C22D80112962C932C33CC
S11304F018F08BE38093CE010CEC11E0F8018381BA
S11305009481A581B681898B9A8BAB8BBC8BBE0100
S1130510675E7F4FCE0141960E94710129833A8321
S11305204B835C836D837E838F83988788E0FE0191
S11305303196DE01519601900D928A95E1F720E003
S113054040E050E060E070E0D8019F968D919C916E
S1130550D0970E94351481E080936E0088E0FE01FC
S11305607196DE01199601900D928A95E1F788E063
S1130570FE013996DE01519601900D928A95E1F7BC
S113058049885A886B887C888D899E89AF89B88D03
S113059084159505A605B70508F0DACE0E949D09D5
S11305A0B1E04B1A510861087108498A5A8A6B8A6A
S11305B07C8AE6CF9B01AC01B901CB01BA01089555
S11305C0CF93DF93FC0182819381009799F0A081FE
S11305D0B1812C9137EF320F323030F02D3031F0C1
S11305E0203231F421E007C021E005C021E003C03E
S11305F020E001C020E0222349F001979383828305
S113060080819181019691838083DDCF009781F071
S1130610A081B1813C914FE9430F4A3128F0315414
S11306203A3120F471E005C071E003C0722F01C0BB
S1130630722F772391F1A081B181019793838283F3
S1130640CD0101969183808341E050E082819381C2
S1130650009781F0C081D18138816FE9630F6A31DD
S113066028F031543A3120F4372F05C0372F03C016
S1130670322F01C0322F332359F0019793838283A1
S1130680808191810196918380834F5F5F4FDECF9C
S11306906A2F7B2F842F952F04C060E070E080E0E8
S11306A090E0DF91CF910895CF93DF93FC01828195
S11306B09381009799F0A081B1812C9137EF320F8B
S11306C0323030F02D3031F0203231F421E007C0E7
S11306D021E005C021E003C020E001C020E0222386
S11306E049F001979383828380819181019691835C
S11306F08083DDCF0097B1F0A081B1813C914FE9B7
S1130700430F4A3130F04FEB430F4A3120F471E08C
S113071003C071E001C0722F711105C03F3519F497
S113072071E001C0722F7723F1F1A081B1810197AB
S113073093838283CD0101969183808341E050E0CD
S1130740828193810097E1F0C081D18168813FE982
S1130750360F3A3130F03FEB360F3A3120F4372F71
S113076003C0372F01C0322F311103C06F3509F494
S1130770372F311106C060536A3018F4372F01C087
S1130780322F332359F0019793838283808191819F
S11307900196918380834F5F5F4FD2CF6A2F7B2F67
S11307A0842F952F04C060E070E080E090E0DF913A
S11307B0CF910895CF93DF93CDB7DEB729970FB6C6
S11307C0F894DEBF0FBECDBFFC0130819DEC399F94
S11307D0212D1124269526952695422F440F842FEA
S11307E0880F880F840F432F481B299F812D1124C4
S11307F0869586958695880F382F330F330F830F90
S1130800281B205D50E0405D5F4F29834A836AE3E3
S11308106B833181399F212D1124269526952695A8
S1130820422F440F842F880F880F840F432F481BB7
S1130830299F812D1124869586958695880F382FBA
S1130840330F330F830F281B205D50E0405D5F4F53
S11308502C834D836E833281399F812D112486959B
S113086086958695482F440F242F220F220F240F9C
S1130870321B232F899F912D112496959695969539
S1130880990F392F330F330F930F891B805D30E09D
S1130890205D3F4F8F8328871986BE016F5F7F4F8E
S11308A08EE698E00E94981E29960FB6F894DEBF53
S11308B00FBECDBFDF91CF910895CF92DF92EF921B
S11308C0FF92CF93DF93823089F128F4882351F08B
S11308D0813099F076C0833009F441C0843009F442
S11308E057C06FC08FB7F894E3E2F2E08483C0800E
S11308F0D180E280F3808FBF6DC0CDEFD1E020E0E6
S11309004FEF5FEF60E070E08C8D9D8D0E94D614F8
S1130910C880D980EA80FB8020E040E050E060E0BD
S113092070E08C8D9D8D0E94351454C0CDEFD1E0C4
S113093020E04FEF5FEF60E070E08C8D9D8D0E94B2
S1130940D614CC80DD80EE80FF8020E040E050E0D3
S113095060E070E08C8D9D8D0E9435143BC0CDEF1E
S1130960D1E020E04FEF5FEF60E070E08C8D9D8D73
S11309700E94D614C884D984EA84FB8420E040E031
S113098050E060E070E08C8D9D8D0E94351422C093
S1130990CDEFD1E020E04FEF5FEF60E070E08C8DB1
S11309A09D8D0E94D614CC84DD84EE84FF8420E0E7
S11309B040E050E060E070E08C8D9D8D0E94351425
S11309C009C020E030E0A901CA01B9010E94C212A5
S11309D06B017C01C701B601DF91CF91FF90EF90CD
S11309E0DF90CF900895CF92DF92EF92FF92CF9352
S11309F0DF9381309105F9F082309105A9F1892BBB
S1130A0009F04BC0CDEFD1E020E04FEF5FEF60E0A5
S1130A1070E08C8D9D8D0E94D614C888D988EA8890
S1130A20FB8820E040E050E060E070E08C8D9D8D1C
S1130A300E94351435C0CDEFD1E020E04FEF5FEFD9
S1130A4060E070E08C8D9D8D0E94D614CC88DD888A
S1130A50EE88FF8820E040E050E060E070E08C8D9C
S1130A609D8D0E9435141CC0CDEFD1E020E04FEFE6
S1130A705FEF60E070E08C8D9D8D0E94D614C88C71
S1130A80D98CEA8CFB8C20E040E050E060E070E020
S1130A908C8D9D8D0E94351403C0C12CD12C760100
S1130AA0C701B601DF91CF91FF90EF90DF90CF9017
S1130AB008954F925F926F927F928F929F92AF921E
S1130AC0BF92CF92DF92EF92FF92CF93DF934B01CD
S1130AD05C010F2EFCE3CF2ED12CE12CF12CF02D58
S1130AE0A70196010E942C2229013A01C62FC501B3
S1130AF0B40120E13EE040E050E00E942C22490194
S1130B005A01C301B201A70196010E942C22D62FDB
S1130B10F62EC501B40128E130E040E050E00E9427
S1130B202C22662369F070E04AE050E08EE698E0FB
S1130B300E94761F68E071E08EE698E00E94981E9D
S1130B40FF2071F06D2F70E04AE050E08EE698E0EF
S1130B500E94761F61E171E08EE698E00E94981E83
S1130B606C2F70E04AE050E08EE698E00E94761F19
S1130B7069E171E08EE698E00E94981EDF91CF91C2
S1130B80FF90EF90DF90CF90BF90AF909F908F90A9
S1130B907F906F905F904F900895CF92DF92EF9285
S1130BA0FF920F931F93CF93DF93E0901F02F09077
S1130BB02002C0E0D0E0C83008F040C00C2F10E0A4
S1130BC08DE0809FF001819FF00D1124EE0DFF1D3B
S1130BD08081882389F160E36D0F8EE698E00E949E
S1130BE0AE1E69E28EE698E00E94AE1E6FE171E0EF
S1130BF08EE698E00E94981E8DE0809F6001819FA0
S1130C00D00C1124C60102968E0D9F1D0E94DA039A
S1130C1064E271E08EE698E00E94981EF701EC0D04
S1130C20FD1D61857285838594850E9459058EE634
S1130C3098E00E94B61EDF5FCF5FBDCFDF91CF91FA
S1130C401F910F91FF90EF90DF90CF900895CF9276
S1130C50DF92EF92FF920F931F93CF93DF93CDB761
S1130C60DEB727970FB6F894DEBF0FBECDBFE09076
S1130C701B02F0901C02D12CC12C83E08D1508F4CA
S1130C8053C00D2D10E0F801EE0FFF1FC801880FAF
S1130C90991F880F991F880F991FE80FF91FEE0DF0
S1130CA0FF1D80818823F1F160E36C0D8EE698E0EE
S1130CB00E94AE1E69E28EE698E00E94AE1E68E2D3
S1130CC071E08EE698E00E94981EC801880F991F73
S1130CD0000F111F000F111F000F111F080F191F04
S1130CE00E0D1F1DF8018481938199838A831B82D1
S1130CF01C821D821E821F82CE0101960E94DA038D
S1130D0064E271E08EE698E00E94981EF801668124
S1130D107781808591850E9459058EE698E00E942E
S1130D20B61EC394D394A9CF27960FB6F894DEBF0A
S1130D300FBECDBFDF91CF911F910F91FF90EF9028
S1130D40DF90CF900895CF93DF93CDB7DEB7CF5A1E
S1130D50D1090FB6F894DEBF0FBECDBF26E040E840
S1130D6055E260E070E08EE698E00E94191DCE0125
S1130D70849628E0EFE2F1E0DC0101900D922A95DF
S1130D80E1F7C855DF4F99838883C85AD04088E07B
S1130D9090E0C655DF4F99838883CA5AD040CE016C
S1130DA088559F4F0E94E0024B015C017501AB28FE
S1130DB089F486E1EFE6F1E0DE01AC59BF4F019022
S1130DC00D928A95E1F7BE016C597F4F8EE698E04B
S1130DD00E94C21E60E070E06E157F05C0F4FB0146
S1130DE0EF55FE4F8081811109C0FB01E80DF91D0B
S1130DF0808111E0882371F010E00CC0FB01E80D44
S1130E00F91D9081981305C06F5F7F4FE5CF11E006
S1130E1001C010E0112309F4AACF63E070E088E375
S1130E2091E00E94DA02C455DF4F688379838A8394
S1130E309B83CC5AD04063E070E08CE391E00E9445
S1130E40DA026B017C0163E070E080E491E00E94CF
S1130E50DA024B015C0163E070E084E491E00E94FB
S1130E60DA022B013C0164E070E083E391E00E942C
S1130E70DA02FE01EC57FF4F24E1DF011D922A95AF
S1130E80E9F7608371838283938344825582668207
S1130E90778280869186A286B386C486D586E686C6
S1130EA0F786C455DF4F88819981AA81BB81CC5ACA
S1130EB0D040808B918BA28BB38BCE0188559F4FF2
S1130EC00E945403FE01EC55FF4F608371838283BB
S1130ED09383BF0180E090E08530910508F045C020
S1130EE0DB0112964D915C911397FC01EE0FFF1FED
S1130EF0EE0FFF1F0F2EF4E8CF2ED12CF02DCC0EC9
S1130F00DD1EEC0DFD1D228133814217530721F5AF
S1130F1020E030E02417350708F5ED91FC91119796
S1130F20E20FF31FF080FC01EE0FFF1FEE0FFF1F17
S1130F300F2EF4E8CF2ED12CF02DCC0EDD1EEC0DAF
S1130F40FD1D0190F081E02DE20FF31FE081FE1200
S1130F5007C02F5F3F4FDECF20E003C0212F01C029
S1130F6020E0211104C00196B7CF85E090E07C0118
S1130F70FF2425E0E216F10458F50E945D044B01BC
S1130F805C01EE0CFF1CEE0CFF1CE4E8F0E0EC0F3F
S1130F90FD1FEE0DFF1D4281538160817181E0913F
S1130FA06E08F0916F080280F381E02D8EE698E0E0
S1130FB0099560E671E08EE698E00E94981E22E0B2
S1130FC030E0B501A4018EE698E00E949120CFCED6
S1130FD065E070E088E491E00E94DA024B015C0174
S1130FE063E070E08EE491E00E94DA022B013C01A0
S1130FF063E070E082E591E00E94DA02FE01E856C7
S1131000FF4F2CE0DF011D922A95E9F7608371837D
S11310108283938344825582668277828086918616
S1131020A286B38620E030E02330310508F049C0C1
S1131030DE01AC55BF4FCA55DF4F48815981C65AAE
S1131040D040F901EE0FFF1FEE0FFF1F0F2EF8E93E
S1131050CF2ED12CF02DCC0EDD1EEC0DFD1D82818A
S113106093814817590719F580E090E08417950794
S113107000F5ED91FC911197E80FF91F7081F901CA
S1131080EE0FFF1FEE0FFF1F0F2EF8E9CF2ED12C0E
S1131090F02DCC0EDD1EEC0DFD1D0190F081E02D38
S11310A0E80FF91F6081761306C00196DFCF80E058
S11310B003C0812F01C080E0811105C02F5F3F4F25
S11310C0B3CF23E030E06901DD2423E0C216D1046C
S11310D060F5C7010E94F3044B015C01CC0CDD1CDC
S11310E0CC0CDD1CE8E9F0E0EC0FFD1FEC0DFD1D60
S11310F04281538160817181E0916E08F0916F08A3
S11311000280F381E02D8EE698E0099560E671E0B7
S11311108EE698E00E94981E2AE030E0B501A40112
S11311208EE698E00E94941F22CE80E090E0CA559B
S1131130DF4F28813981C65AD0408217930710F5B2
S1131140FC01EA5AFE4F408141110FC0CC55DF4FDC
S113115048815981C45AD040FA01E80FF91F8081AF
S113116061E0882391F060E010C0CC55DF4FE88146
S1131170F981C45AD040E80FF91F5081451304C0C7
S11311800196D5CF612F01C060E0662309F469C0E0
S11311906CE571E08EE698E00E94981E0EE610E081
S11311A0D8011C920F2EFCECEF2EF1E0FF2EF02D57
S11311B020E04FEF5FEF60E070E0F70187A590A9B2
S11311C00E94D61487E0F701DE011F9601900D926C
S11311D08A95E1F787E0FE013F96DE0118960190BB
S11311E00D928A95E1F787E0FE013896DE01AC594D
S11311F0BF4F01900D928A95E1F720E040E050E066
S113120060E070E0D7019F968D919C91D0970E94E9
S1131210351481E0F801808387E0FE01EC59FF4F2B
S1131220DE01119601900D928A95E1F787E0FE01A7
S11312303196DE01569601900D928A95E1F787E08A
S1131240FE017696DE015D9601900D928A95E1F796
S1131250CE014D960E94DA038EE698E00E94B61EF7
S113126086CD80E090E08217930710F5FC01EC59DD
S1131270FE4F408141110FC0CC55DF4F4881598149
S1131280C45AD040FA01E80FF91F808161E0882335
S113129081F060E00EC0CC55DF4FE881F981C45A7B
S11312A0D040E80FF91F5081451303C00196DBCFEE
S11312B0612F662319F00E94CD0559CD80E090E09E
S11312C08217930718F5FC01E759FE4F408141113D
S11312D00FC0CC55DF4F28813981C45AD040F90161
S11312E0E80FF91F808111E0882381F010E00EC01F
S11312F0CC55DF4FE881F981C45AD040E80FF91F7B
S11313005081451302C00196DBCF162F112319F02B
S11313100E9427062CCD80E2E5E8F1E0DE01AC591D
S1131320BF4F01900D928A95E1F7BE016C597F4F32
S11313308EE698E00E94C21E1ACDCF92DF92EF9201
S1131340FF92CF93DF93CFE1D2E020E04FEF5FEF46
S113135060E070E08A819B810E94D61448815981A3
S113136080E0883080F5282F30E09DE0929FF001E6
S1131370939FF00D1124E40FF51F9081992309F137
S11313809DE0929FF001939FF00D1124E40FF51F4F
S1131390C580D680E780F084C114D104E104F1044F
S11313A081F0929FF001939FF00D1124E40FF51F3B
S11313B091E0C91AD108E108F108C582D682E78212
S11313C0F0868F5FCECF20E040E050E060E070E038
S11313D080912102909122020E943514CBE1D2E047
S11313E020E04FEF5FEF60E070E08A819B810E9414
S11313F0D6146881798140E0443028F5842F90E048
S1131400FC01EE0FFF1F9C01220F331F220F331F1D
S1131410220F331FE20FF31FE60FF71F2081222351
S113142081F0FC01EE0FFF1F880F991F880F991F91
S1131430880F991FE80FF91FE60FF71F82818F5F4E
S113144082834F5FD9CF20E040E050E060E070E05D
S113145080911D0290911E020E943514DF91CF915C
S1131460FF90EF90DF90CF9008952F923F924F928C
S11314705F926F927F928F929F92AF92BF92CF9220
S1131480DF92EF92FF920F931F93CF93DF93CDB729
S1131490DEB7E1970FB6F894DEBF0FBECDBFFC01F7
S11314A01A012B0197E0DE019B9601900D929A950B
S11314B0E1F72DA530E040E050E060E070E080E02E
S11314C090E0A22CB32CC42CD52CE12CF12C00E000
S11314D010E00E94B822222E332E442E552E662E62
S11314E0772E882E992E0F2EFCE3AF2EF02DB12CE3
S11314F0C12CD12C0E9459222DA7222D332D442DED
S1131500552D662D772D882D992D0E945B22A22EB4
S1131510B32EC42ED52EE62EF72E082F192F2CA568
S113152030E040E050E060E070E080E090E00E9455
S1131530B822222E332E442E552E662E772E882E38
S1131540992E0F2EFCE3AF2EF02DB12CC12CD12CF3
S1131550E12CF12C00E010E00E9459222CA7222D4E
S1131560332D442D552D662D772D882D992D0E94D0
S11315705B22A22EB32EC42ED52EE62EF72E082FD4
S1131580192F2BA530E040E050E060E070E080E0EF
S113159090E00E94B822222E332E442E552E662E21
S11315A0772E882E992E0F2EF8E1AF2EF02DB12C28
S11315B0C12CD12CE12CF12C00E010E00E94592226
S11315C02BA7222D332D442D552D662D772D882DB7
S11315D0992D0E945B22022F132F242F352F8EA5C5
S11315E09FA5A8A9B9A9080F191F2A1F3B1F0EA759
S11315F01FA728AB39AB87E0FE01BB96DE015696E8
S113160001900D928A95E1F787E0FE017696DE015E
S1131610949601900D928A95E1F788B1846088B917
S113162088EE93E00E9479180EE610E0F80110822B
S11316300F2EFCECEF2EF1E0FF2EF02D20E04FEF0B
S11316405FEF60E070E0F70187A590A90E94D614CF
S113165087E0F701DE011F9601900D928A95E1F76C
S113166087E0FE013F96DE01189601900D928A955F
S1131670E1F787E0FE013896DE019B9601900D921A
S11316808A95E1F720E040E050E060E070E0F70187
S113169087A590A90E94351481E0F801808387E032
S11316A0FE01BB96DE01119601900D928A95E1F739
S11316B087E0FE013196DE019B9601900D928A959A
S11316C0E1F7429B04C0429904C081E003C080E07A
S11316D001C080E0811126C00EA51FA528A939A943
S11316E04FA158A569A57AA540175107620773074A
S11316F090F00417150726073707A0F02BA59CA127
S1131700921758F0291770F02CA59DA1921738F064
S1131710291738F407C081E005C081E003C081E0E7
S113172001C081E0882309F47BCF88B18B7F88B91D
S113173087E0FE01BB96DE015D9601900D928A95CD
S1131740E1F72D8D3E8D4F8D58A169A17AA18BA112
S113175090E0E1960FB6F894DEBF0FBECDBFDF91E7
S1131760CF911F910F91FF90EF90DF90CF90BF909A
S1131770AF909F908F907F906F905F904F903F902D
S11317802F900895CF93DF93CDB7DEB7CE59D1090B
S11317900FB6F894DEBF0FBECDBF0EE610E0F80121
S11317A010820F2EFCECEF2EF1E0FF2EF02D20E046
S11317B04FEF5FEF60E070E0F70187A590A90E940A
S11317C0D61487E0F701DE01A25BBF4F01900D92B2
S11317D08A95E1F787E0FE01E25BFF4FDE01A95B3A
S11317E0BF4F01900D928A95E1F787E0FE01E95B16
S11317F0FF4FDE01A958BF4F01900D928A95E1F782
S113180020E040E050E060E070E0F70187A590A997
S11318100E94351481E0F801808387E0FE01E958D5
S1131820FF4FDE01A05CBF4F01900D928A95E1F756
S113183087E0FE01E05CFF4FDE01AB5ABF4F019031
S11318400D928A95E1F787E0FE01EB5AFF4FDE0126
S1131850A059BF4F01900D928A95E1F788EE93E06D
S11318600E9479180DEF11E020E04FEF5FEF60E088
S113187070E0F801848D958D0E94D614F801C48817
S1131880D588E688F78820E040E050E060E070E02A
S1131890848D958D0E9435148E0107571F4FF801D2
S11318A0C082D182E282F3820F2EFEE6EF2EF12C6B
S11318B0F02DF70110820F2EFCECCF2EF1E0DF2E7D
S11318C0F02D20E04FEF5FEF60E070E0F60187A5B8
S11318D090A90E94D61487E0F601DE01D296019009
S11318E00D928A95E1F787E0FE01F296DE019B9660
S11318F001900D928A95E1F787E0FE01BB96DE0127
S1131900A958BF4F01900D928A95E1F720E040E07D
S113191050E060E070E0F60187A590A90E943514BC
S113192081E0F701808387E0FE01E958FF4FDE0183
S1131930949601900D928A95E1F787E0FE01B496A2
S1131940DE01D99601900D928A95E1F7CE01825875
S11319509F4F27E0FE01F996DC0101900D922A9534
S1131960E1F7DE01A357BF4F1C92FE01EB57FF4F77
S11319701082118212821382A8969FAF8EAFA8970D
S11319800E97AA969FAF8EAFAA97AC96BFAFAEAF95
S1131990AC97AE96FFAFEEAFAE97E0961FAF0EAF2B
S11319A0E0970FE112E020E04FEF5FEF60E070E0BE
S11319B0F801828193810E94D614F801208031803D
S11319C0812C982CF7E0F91508F48BC2692C712C42
S11319D08DE0869DF001879DF00D1124E20DF31D2D
S11319E08080882009F47BC2A8964EAC5FACA8978F
S11319F0F201428131812081869DF001879DF00DA5
S1131A001124E20DF31D85819681A781B085892B70
S1131A108A2B8B2B49F58DE0869DF001879DF00D77
S1131A201124E20DF31D8281281700F1821708F1B9
S1131A308DE0869DF001879DF00D1124E20DF31DCC
S1131A4083813817A8F08317A0F08DE0869DF001FC
S1131A50879DF00D1124E20DF31D88248394848165
S1131A60481738F4812C05C0812C03C0812C01C097
S1131A70812C882009F433C2E096EEADFFADE097E7
S1131A8080819181A281B3818C019D0140E050E06D
S1131A90BA01C257DF4F8883CE58D040C157DF4FB9
S1131AA01883CF58D040C057DF4F2883C059D04047
S1131AB0CF56DF4F3883C159D040CE56DF4F4883CD
S1131AC0C259D040CD56DF4F5883C359D040CC566D
S1131AD0DF4F6883C459D040CB56DF4F7883C55954
S1131AE0D040AA96EEADFFADAA9787E0DE01A958D3
S1131AF0BF4F01900D928A95E1F7EA962FADEA97D0
S1131B0030E040E050E060E070E080E090E0C257F8
S1131B10DF4FA880CE58D040C157DF4FB880CF5890
S1131B20D040C057DF4FC880C059D040CF56DF4F98
S1131B30D880C159D040E12CF12C00E010E00E9483
S1131B40B822C257DF4F2883CE58D040C456DF4F47
S1131B503883CC59D040CA56DF4F4883C659D04049
S1131B60C956DF4F5883C759D040C856DF4F6883E2
S1131B70C859D040C756DF4F7883C959D040C6569C
S1131B80DF4F8883CA59D040C556DF4F9883CB595D
S1131B90D0400F2EFCE3AF2EF02DB12CC12CD12C54
S1131BA00E945922EA962FAFEA97C257DF4F288145
S1131BB0CE58D040C456DF4F3881CC59D040CA5695
S1131BC0DF4F4881C659D040C956DF4F5881C759A5
S1131BD0D040C856DF4F6881C859D040C756DF4F40
S1131BE07881C959D040C656DF4F8881CA59D04040
S1131BF0C556DF4F9881CB59D0400E945B22A22E5C
S1131C00B32EC42ED52EE62EF72E082F192FE996C3
S1131C102FADE99730E040E050E060E070E080E014
S1131C2090E00E94B822C257DF4F2883CE58D0409C
S1131C30C456DF4F3883CC59D040CA56DF4F48834F
S1131C40C659D040C956DF4F5883C759D040C856EB
S1131C50DF4F6883C859D040C756DF4F7883C959CE
S1131C60D040C656DF4F8883CA59D040C556DF4F8F
S1131C709883CB59D0400F2EFCE3AF2EF02DB12C1E
S1131C80C12CD12CE12CF12C00E010E00E9459224F
S1131C90E9962FAFE997C257DF4F2881CE58D0403D
S1131CA0C456DF4F3881CC59D040CA56DF4F4881E3
S1131CB0C659D040C956DF4F5881C759D040C8567D
S1131CC0DF4F6881C859D040C756DF4F7881C95962
S1131CD0D040C656DF4F8881CA59D040C556DF4F21
S1131CE09881CB59D0400E945B22A22EB32EC42EE1
S1131CF0D52EE62EF72E082F192FE8962FADE8974C
S1131D0030E040E050E060E070E080E090E00E946D
S1131D10B822C257DF4F2883CE58D040C456DF4F75
S1131D203883CC59D040CA56DF4F4883C659D04077
S1131D30C956DF4F5883C759D040C856DF4F688310
S1131D40C859D040C756DF4F7883C959D040C656CA
S1131D50DF4F8883CA59D040C556DF4F9883CB598B
S1131D60D0400F2EF8E1AF2EF02DB12CC12CD12C88
S1131D70E12CF12C00E010E00E945922E8962FAFEC
S1131D80E897C257DF4F2881CE58D040C456DF4F62
S1131D903881CC59D040CA56DF4F4881C659D0400B
S1131DA0C956DF4F5881C759D040C856DF4F6881A4
S1131DB0C859D040C756DF4F7881C959D040C6565C
S1131DC0DF4F8881CA59D040C556DF4F9881CB591F
S1131DD0D0400E945B22022F132F242F352FEE9622
S1131DE08CAD9DADAEADBFADEE97080F191F2A1F88
S1131DF03B1FEE960CAF1DAF2EAF3FAFEE9787E0C3
S1131E00FE01E958FF4FDE011F9601900D928A955D
S1131E10E1F787E0FE013F96DE01569601900D92B0
S1131E208A95E1F787E0FE017696DE015D960190E2
S1131E300D928A95E1F7F20143815481658176819F
S1131E4088A199A1AAA1BBA184179507A607B707E2
S1131E50E8F0481759076A077B0788F090818D8D51
S1131E608917A0F0981768F091818E8D891770F00A
S1131E70981748F092818F8D891738F407C0812C08
S1131E8005C0812C03C0812C01C0812C811009C0A4
S1131E908DE0869DF001879DF00D1124E20DF31D68
S1131EA081808820E1F0AC96EEADFFADAC9781E087
S1131EB08083AE96AEADBFADAE978DE0869DF0014A
S1131EC0879DF00D1124E20DF31D41855285638534
S1131ED074854D935D936D937C93139710829394C3
S1131EE071CD20E040E050E060E070E0809121029C
S1131EF0909122020E943514C357DF4F8881CD5838
S1131F00D040882311F1CB57DF4F488159816A8132
S1131F107B81C558D040CE0182589F4F0E94350A1C
S1131F20E1962FAFE197E2963FAFE297E3964FAF8A
S1131F30E397E4965FAFE497E5966FAFE597E6968F
S1131F407FAFE697E7968FAFE797FE01E357FF4F22
S1131F501082CE0182589F4F6E969FAF8EAF6E97C0
S1131F600E97A0969FAF8EAFA097A296FFAFEEAF4D
S1131F70A2974596A4969FAF8EAFA4970496A69673
S1131F809FAF8EAFA6970BE112E020E04FEF5FEF1B
S1131F9060E070E0F801828193810E94D614F80118
S1131FA020803180612C962CF3E0F91508F4AFC23F
S1131FB0692C712CF301EE0FFF1FC301880F991FC9
S1131FC0880F991F880F991FE80FF91FE20DF31D61
S1131FD08080882009F499C26E964EAC5FAC6E97EF
S1131FE0F2012281F181C256DF4FF883CE59D040ED
S1131FF0F201F081C456DF4FF883CC59D040C301BD
S1132000880F991F880F991F880F991FF301EE0FEE
S1132010FF1FE80FF91FE20DF31D928181819817CC
S113202008F445C0C301880F991F880F991F880FB2
S1132030991FF301EE0FFF1FE80FF91FE20DF31DC7
S11320408381C456DF4F0881CC59D040081788F1EA
S1132050801790F1C301880F991F880F991F880F6B
S1132060991FF301EE0FFF1FE80FF91FE20DF31D97
S11320708481C256DF4F1881CE59D0401817D8F04A
S11320808117D0F0C301880F991F880F991F880FFB
S1132090991FF301EE0FFF1FE80FF91FE20DF31D67
S11320A0882483948581281738F4812C05C0812CD9
S11320B003C0812C01C0812C882009F426C2A69675
S11320C0EEADFFADA69780819181A281B3818C0191
S11320D09D0140E050E0BA01C257DF4F8883CE58DB
S11320E0D040C157DF4F1883CF58D040C057DF4F7F
S11320F02883C059D040CF56DF4F3883C159D040D0
S1132100CE56DF4F4883C259D040CD56DF4F588357
S1132110C359D040CC56DF4F6883C459D040CB5606
S1132120DF4F7883C559D040A096EEADFFADA097A0
S113213087E0DE01A958BF4F01900D928A95E1F71F
S1132140EA962FADEA9730E040E050E060E070E0BE
S113215080E090E0C257DF4FA880CE58D040C157EE
S1132160DF4FB880CF58D040C057DF4FC880C05928
S1132170D040CF56DF4FD880C159D040E12CF12C4C
S113218000E010E00E94B822C257DF4F2883CE58E7
S1132190D040CA56DF4F3883C659D040C956DF4FA6
S11321A04883C759D040C856DF4F5883C859D040D8
S11321B0C756DF4F6883C959D040C656DF4F78836E
S11321C0CA59D040C556DF4F8883CB59D040C35637
S11321D0DF4F9883CD59D0400F2EFCE3AF2EF02D66
S11321E0B12CC12CD12C0E945922EA962FAFEA9728
S11321F0C257DF4F2881CE58D040CA56DF4F3881AE
S1132200C659D040C956DF4F4881C759D040C85637
S1132210DF4F5881C859D040C756DF4F6881C9592C
S1132220D040C656DF4F7881CA59D040C556DF4FDB
S11322308881CB59D040C356DF4F9881CD59D040C7
S11322400E945B22A22EB32EC42ED52EE62EF72E8C
S1132250082F192FE9962FADE99730E040E050E0C0
S113226060E070E080E090E00E94B822C257DF4F47
S11322702883CE58D040CA56DF4F3883C659D04041
S1132280C956DF4F4883C759D040C856DF4F5883DB
S1132290C859D040C756DF4F6883C959D040C65685
S11322A0DF4F7883CA59D040C556DF4F8883CB5956
S11322B0D040C356DF4F9883CD59D0400F2EFCE356
S11322C0AF2EF02DB12CC12CD12CE12CF12C00E03F
S11322D010E00E945922E9962FAFE997C257DF4FC9
S11322E02881CE58D040CA56DF4F3881C659D040D5
S11322F0C956DF4F4881C759D040C856DF4F58816F
S1132300C859D040C756DF4F6881C959D040C65616
S1132310DF4F7881CA59D040C556DF4F8881CB59E9
S1132320D040C356DF4F9881CD59D0400E945B22E4
S1132330A22EB32EC42ED52EE62EF72E082F192F3B
S1132340E8962FADE89730E040E050E060E070E0C0
S113235080E090E00E94B822C257DF4F2883CE5815
S1132360D040CA56DF4F3883C659D040C956DF4FD4
S11323704883C759D040C856DF4F5883C859D04006
S1132380C756DF4F6883C959D040C656DF4F78839C
S1132390CA59D040C556DF4F8883CB59D040C35665
S11323A0DF4F9883CD59D0400F2EF8E1AF2EF02D9A
S11323B0B12CC12CD12CE12CF12C00E010E00E94B6
S11323C05922E8962FAFE897C257DF4F2881CE589D
S11323D0D040CA56DF4F3881C659D040C956DF4F66
S11323E04881C759D040C856DF4F5881C859D0409A
S11323F0C756DF4F6881C959D040C656DF4F788130
S1132400CA59D040C556DF4F8881CB59D040C356F6
S1132410DF4F9881CD59D0400E945B22022F132FA9
S1132420242F352FEE968CAD9DADAEADBFADEE979E
S1132430080F191F2A1F3B1FEE960CAF1DAF2EAFBE
S11324403FAFEE9787E0FE01E958FF4FDE0111969A
S113245001900D928A95E1F787E0FE013196DE0145
S1132460189601900D928A95E1F7F2014381548107
S1132470658176818B859C85AD85BE85841795079E
S1132480A607B707F0F0481759076A077B07B0F0AB
S11324908885C456DF4FF881CC59D0408F1788F017
S11324A0F81770F08985C256DF4F0881CE59D040A5
S11324B0801738F0081728F4812C03C0812C01C040
S11324C0812C882011F1A296EEADFFADA29781E098
S11324D08083A496AEADBFADA497F301EE0FFF1FAA
S11324E0C301880F991F880F991F880F991FE80F40
S11324F0F91FE20DF31D46815781608571854D9367
S11325005D936D937C931397128293944DCD20E049
S113251040E050E060E070E080911D0290911E0266
S11325200E943514C357DF4F8881CD58D04088238B
S113253009F494C9CB57DF4F488159816A817B8163
S1132540C558D040CE0182589F4F0E94350AE1966B
S11325502FAFE197E2963FAFE297E3964FAFE39751
S1132560E4965FAFE497E5966FAFE597E6967FAFA5
S1132570E697E7968FAFE79771C988EE93E00E94DC
S11325807918FBCF0E94D6120C944B130E9444136B
S113259058F00E943D1340F029F45F3F29F00C9459
S11325A0341351110C947F130C943A130E945C134E
S11325B068F39923B1F3552391F3951B550BBB276E
S11325C0AA2762177307840738F09F5F5F4F220FB3
S11325D0331F441FAA1FA9F335D00E2E3AF0E0E8AA
S11325E032D091505040E695001CCAF72BD0FE2FF4
S11325F029D0660F771F881FBB1F26173707480788
S1132600AB07B0E809F0BB0B802DBF01FF2793583F
S11326105F4F3AF09E3F510578F00C9434130C94BC
S11326207F135F3FE4F3983ED4F3869577956795DF
S1132630B795F7959F5FC9F7880F911D9695879574
S113264097F90895E1E0660F771F881FBB1F621793
S113265073078407BA0720F0621B730B840BBA0B51
S1132660EE1F88F7E095089597F99F6780E870E07A
S113267060E008959FEF80EC089500240A941616F4
S1132680170618060906089500240A94121613065C
S1132690140605060895092E0394000C11F48823EA
S11326A052F0BB0F40F4BF2B11F460FF04C06F5F06
S11326B07F4F8F4F9F4F089557FD9058440F551FDC
S11326C059F05F3F71F04795880F97FB991F61F0B0
S11326D09F3F79F087950895121613061406551F27
S11326E0F2CF4695F1DF08C0161617061806991F93
S11326F0F1CF86957105610508940895E894BB2788
S113270066277727CB0197F908950F931F93CF93EB
S1132710DF93EC01042F1A8D4C8D4423B9F1011180
S113272016C050E08C819D810E9431242C8D8C81B7
S11327309D81820F911D9D838C832A813B81821709
S1132740930720F1888199819D838C831FC050E079
S11327508E819F810E9431248C8D90E0919581958A
S113276091092E813F81280F391F3F832E83488191
S113277059812417350730F42A813B81820F931F36
S11327809F838E83023011F4111111501F5F1A8F31
S113279080E0DF91CF911F910F910895FC01448D4A
S11327A04423A9F050E026813781240F351F378355
S11327B02683828193812817390720F080819181B3
S11327C097838683CB01668177810E9431240895A3
S11327D0EF92FF920F931F93CF938C010FB6F8944F
S11327E00F92FC01C68D1C16ACF48189811106C0C0
S11327F011C0F8018189811105C00CC07801F1E193
S1132800EF0EF11CC7010E94421981110E94CE19DA
S1132810C15079F78FEFF801868F0F900FBE0FB676
S1132820F8940F92C58D1C16ACF48085811106C0F6
S113283011C0F8018085811105C00CC07801F8E051
S1132840EF0EF11CC7010E94421981110E94CE199A
S1132850C15079F78FEFF801858F0F900FBECF919C
S11328601F910F91FF90EF9008959F92AF92BF92A6
S1132870CF92DF92EF92FF920F931F93CF93DF9348
S113288000D000D01F92CDB7DEB78C016B015D8301
S11328904C83A22EB12C992493947C0188E0E80EF9
S11328A0F11C0FB6F8940F92F801928D838D98174E
S11328B018F0F2E0AF1219C04A2DB601C8010E9407
S11328C08513F8019189992349F0C80141960E9422
S11328D04219882331F00E943A1B03C081110E94DF
S11328E03A1B0F900FBE81E050C08C819D81892BD3
S11328F021F40F900FBE80E048C0B11005C0CE0196
S113290001960E948A19B92C0F900FBE0E943917A4
S11329100FB6F8940F92F801858D8F3F09F4158E48
S1132920F801868D8F3F09F4168E0F900FBEBE01FD
S11329306C5F7F4FCE0101960E94951981111FC0D3
S11329400FB6F8940F92F801928D0F900FBE838DFD
S113295098130FC06C817D81C7010E943019C80192
S11329600E94E8130E94FA1781119BCF0E943A1B20
S113297098CFC8010E94E8130E94FA1792CFC801A9
S11329800E94E8130E94FA1780E00F900F900F90B6
S11329900F900F90DF91CF911F910F91FF90EF90C7
S11329A0DF90CF90BF90AF909F9008958F929F92A9
S11329B0AF92BF92CF92DF92EF92FF920F931F9349
S11329C0CF93DF9300D000D01F92CDB7DEB78C0138
S11329D05B015D834C83822EE12C992493946C01DA
S11329E081E1C80ED11C0FB6F8940F92F801F28C55
S11329F0FF2041F1C680D780B501C8010E94CE13E3
S1132A0081100FC0FA94F801F28E80858823B1F00A
S1132A10C80108960E944219882381F00E943A1B3B
S1132A200DC0F801D782C6828189882339F0C80194
S1132A3041960E94421981110E943A1B0F900FBEC9
S1132A4081E057C08C819D81892B21F40F900FBEAA
S1132A5080E04FC0E11005C0CE0101960E948A19A2
S1132A60E92C0F900FBE0E9439170FB6F8940F92FD
S1132A70F801858D8F3F09F4158EF801868D8F3FFF
S1132A8009F4168E0F900FBEBE016C5F7F4FCE010E
S1132A9001960E94951981111EC00FB6F8940F92E9
S1132AA0F801828D0F900FBE81110FC06C817D8162
S1132AB0C6010E943019C8010E94E8130E94FA1747
S1132AC0811191CF0E943A1B8ECFC8010E94E81356
S1132AD00E94FA1788CFC8010E94E8130E94FA17CF
S1132AE00FB6F8940F92F801828D0F900FBE8111EA
S1132AF07ACF0F900F900F900F900F90DF91CF919E
S1132B001F910F91FF90EF90DF90CF90BF90AF9007
S1132B109F908F900895E0915402F0915502808126
S1132B20811107C08FEF9FEF90932C0280932B02AB
S1132B300895E0915402F09155020580F681E02D4C
S1132B400680F781E02D8281938190932C028093FB
S1132B502B020895FF920F931F93CF93DF93EC0101
S1132B60F62E009133021091340280918C029091E0
S1132B708D0202960E946C1ACF3F8FEFD80769F43A
S1132B80FF2059F060918C0270918D026E5F7F4F2F
S1132B9086E392E00E941A1A2FC0C00FD11FE09161
S1132BA08C02F0918D02D383C283C017D10768F4DD
S1132BB060918C0270918D02809152029091530227
S1132BC06E5F7F4F0E943B1A17C060918C02709118
S1132BD08D0280915402909155026E5F7F4F0E9446
S1132BE03B1A80912B0290912C02C817D90720F42C
S1132BF0D0932C02C0932B02DF91CF911F910F91A0
S1132C00FF9008954F925F926F927F928F929F925E
S1132C10AF92BF92CF92DF92EF92FF920F93CF9336
S1132C20DF934C016B015A012901CA010E94D21998
S1132C303C01892B09F4E2C086E290E00E94D2199B
S1132C40EC01892B71F0788E6F8A81E0A81AB108A3
S1132C50A60CB71CD6018C91898F8C91811105C06B
S1132C6018C0C3010E94071AC9C0AE01465E5F4F77
S1132C70F6013196B8E0CB0ED11CCF012191DA01D7
S1132C802D93AD01DC018C91882319F0EC15FD0521
S1132C90A1F718A2043008F003E00E8B6E01B2E035
S1132CA0CB0ED11CC6010E94161ACE010C960E94AE
S1132CB0161AD987C88784E090E0801B91099D8704
S1132CC08C87DB8BCA8B19A21AA21BA21CA21DA281
S1132CD0A201B401C5010E94921A99838883E11468
S1132CE0F10419F0F701D183C0830FB6F8940F9261
S1132CF0809135028F5F8093350280918C02909190
S1132D008D02892BD1F5D0938D02C0938C028091D2
S1132D103502813009F041C088E692E00E94081A29
S1132D2081E792E00E94081A8AE792E00E94081A5A
S1132D3083E892E00E94081A8FE592E00E94081A44
S1132D4086E592E00E94081A89E492E00E94081A3B
S1132D5080E492E00E94081A86E392E00E94081A36
S1132D608FE592E0909355028093540286E592E0B9
S1132D70909353028093520210C0809131028111CA
S1132D800CC0E0918C02F0918D0296898E8989178E
S1132D9020F0D0938D02C0938C0280912D028F5F1E
S1132DA080932D028E8990913202981710F48093AB
S1132DB0320290E09C01220F331F220F331F220F97
S1132DC0331F820F931FB60188599D4F0E941A1A10
S1132DD00F900FBE80913102882361F0E0918C0244
S1132DE0F0918D0296898E89981730F40E943A1BCF
S1132DF081E005C081E003C081E001C08FEFDF9175
S1132E00CF910F91FF90EF90DF90CF90BF90AF9054
S1132E109F908F907F906F905F904F900895EF9266
S1132E20FF920F930F2EF9E2EF2EF2E0FF2EF02D1A
S1132E3000E020E030E045E550E065EA71E08DE82F
S1132E4098E10E940216813081F4F8948FEF9FEF8D
S1132E5090932C0280932B0281E080933102109294
S1132E603402109233020E94FE1A0F91FF90EF90E9
S1132E700895809128028F5F809328020895CF924D
S1132E80DF92EF92FF920F931F93CF93DF93809182
S1132E902802811199C0E0903302F09034028FEF40
S1132EA0E81AF80AF0923402E0923302E114F104D1
S1132EB0B9F48091540290915502209152023091BC
S1132EC053023093550220935402909353028093FB
S1132ED0520280912E028F5F80932E020E948B15E6
S1132EE080912B0290912C02E816F90610F4D12C53
S1132EF053C0D12CCC24C394E0915402F0915502D8
S1132F008081811107C08FEF9FEF90932C028093F3
S1132F102B0242C0E0915402F09155020580F681E3
S1132F20E02DC681D7818A819B81E816F90628F4B1
S1132F3090932C0280932B022FC08E010E5F1F4FA3
S1132F40C8010E946C1A8C899D89892B21F0CE01BD
S1132F500C960E946C1A8E8990913202981710F484
S1132F608093320290E09C01220F331F220F331F03
S1132F70220F331F820F931FB80188599D4F0E945F
S1132F801A1AE0918C02F0918D029E898689981715
S1132F9008F4B2CFDC2CB0CFE0918C02F0918D021A
S1132FA0868990E0FC01EE0FFF1FEE0FFF1FEE0F6E
S1132FB0FF1F8E0F9F1FFC01E859FD4F8081823057
S1132FC048F0DD24D39406C0809130028F5F809353
S1132FD03002D12C80912F02882311F0DD24D39468
S1132FE08D2DDF91CF911F910F91FF90EF90DF9086
S1132FF0CF900895DF92EF92FF920F931F93CF9398
S1133000DF930FB6F8940F92809128028150809339
S113301028028091280281115FC0809135028111BC
S113302033C05DC0D7011596ED91FC911697C6810A
S1133030D781CE010C960E946C1A8E010E5F1F4F31
S1133040C8010E946C1A8E8990913202981710F46C
S11330508093320290E09C01220F331F220F331F12
S1133060220F331F820F931FB80188599D4F0E946E
S11330701A1AE0918C02F0918D029E898689981724
S113308068F0D0922F020AC0C0E0D0E00F2EF9E41D
S1133090EF2EF2E0FF2EF02DDD24D394F701808192
S11330A08111C0CFCD2B11F00E948B15C09130023D
S11330B0CC2351F0D1E00E943F178111D0932F020D
S11330C0C150C9F71092300280912F02882331F049
S11330D00E943A1B81E003C080E001C080E00F90B1
S11330E00FBEDF91CF911F910F91FF90EF90DF9072
S11330F00895CF93DF93EC01892B51F00E94391787
S113310060E0CE010E94AA150E94FA17811102C044
S11331100E943A1BDF91CF91089500E412E00F2E34
S1133120F8E6EF2EF2E0FF2EF02D29C00E943917A9
S1133130D801CC910E94FA17CC2309F10FB6F89468
S11331400F92D8011596ED91FC911697C681D781FF
S1133150CE0102960E946C1A8091350281508093B0
S1133160350280913F02815080933F020F900FBE41
S11331708F89988D0E94071ACE010E94071A8091A8
S11331803F028111D3CFF70180818230C0F30E94C6
S11331903A1BF5CF80912802882321F081E08093A7
S11331A02F02089510922F0220913202822F90E074
S11331B0FC01EE0FFF1FEE0FFF1FEE0FFF1FE80FC6
S11331C0F91FE859FD4F3081311111C02150822F70
S11331D090E0FC01EE0FFF1FEE0FFF1FEE0FFF1F2D
S11331E0E80FF91FE859FD4F3081332379F3AC011F
S11331F0440F551F440F551F440F551F480F591FA7
S1133200DA01A859BD4F1196ED91FC9112970280F5
S1133210F381E02D1296FC93EE93119745595D4F7F
S1133220E417F50729F442815381FD015283418358
S1133230FC01EE0FFF1FEE0FFF1FEE0FFF1F8E0F9F
S11332409F1FFC01E859FD4F0180F281E02D86812A
S1133250978190938D0280938C022093320208957B
S1133260CF93DF93EB0160918C0270918D02645FC8
S11332707F4F0E943B1A61E0CE010E94AA15DF91A4
S1133280CF9108950F931F93CF93DF93DC0115968D
S1133290ED91FC911697C681D7818E01045F1F4F73
S11332A0C8010E946C1A8091280281111CC00A5026
S11332B01109C8010E946C1A8E89909132029817E4
S11332C010F48093320290E09C01220F331F220FEE
S11332D0331F220F331F820F931FB80188599D4F4C
S11332E00E941A1A05C0B80189E492E00E941A1AD1
S11332F0E0918C02F0918D029E898689891720F4D1
S113330081E080932F0201C080E0DF91CF911F9173
S11333100F91089520912E02FC0120832091330205
S1133320309134023283218308950FB6F8940F92BA
S11333304091330250913402DB012D913C912F3F97
S1133340BFEF3B0719F1E0912E02DC01FC91FE175F
S113335039F01196ED91FC9112974E175F07C0F466
S1133360DC011196ED91FC911297DA01AE1BBF0BB3
S1133370A217B30778F4DB01E41BF50B2E0F3F1FF4
S11333802D933C930E948A1980E005C080E003C01D
S113339081E001C081E00F900FBE089581E0809329
S11333A02F020895CF93DF93EC010E943917809187
S11333B08E0290918F02892B31F483E992E09093ED
S11333C08F0280938E022091900230919102C90164
S11333D08C0F9D1F8B3D45E0940770F42817390727
S11333E070F4C0918E02D0918F02C20FD31F9093BC
S11333F091028093900205C0C0E0D0E002C0C0E01A
S1133400D0E00E94FA17CE01DF91CF91089508957C
S1133410FC010396928381832FEF3FEF3483238350
S1133420968385839087878310820895FC01118693
S113343010860895CF93DF939C01FB01DC01119664
S1133440CD91DC911297D383C2838C819D81958326
S113345084838C819D81DC0113967C936E931297F7
S11334607D836C8331872087F90180818F5F80831E
S1133470DF91CF910895CF93DF93EB014881598178
S11334804F3F2FEF520721F4FC01A781B0850DC0F7
S1133490DC01139601C0DF011296ED91FC911397A4
S11334A02081318142175307B0F71296ED91FC91B8
S11334B01397FB83EA83D583C483BD83AC831396BC
S11334C0DC93CE93129799878887FC0120812F5F24
S11334D02083DF91CF910895CF93DF93FC01A085E2
S11334E0B185C281D381848195819D838C83C4817C
S11334F0D581828193819B838A8311968D919C913E
S11335001297E817F90731F48481958112969C93F8
S11335108E931197118610868C9181508C93DF9134
S1133520CF91089531E1FC013083319722E2208369
S11335303197A3E3A08331976083319770833197E8
S11335401082319760E8608331971082319762E08E
S11335506083319763E06083319764E060833197DF
S113356065E06083319766E06083319767E060834C
S1133570319768E06083319769E06083319760E157
S1133580608331973083319732E13083319733E16F
S11335903083319734E13083319735E1308331978B
S11335A036E13083319737E13083319738E1308326
S11335B0319739E13083319730E23083319731E20A
S11335C0308331972083319723E2208331974083DE
S11335D031975083319726E22083319727E2208365
S11335E0319728E22083319729E22083319720E321
S11335F02083319721E320838697089510928900D0
S113360089EF80938800E1E8F0E080818B6080831B
S1133610EFE6F0E0808182608083A0918C02B0911B
S11336208D02CD91CDBFDD91DEBFFF91EF91DF9192
S1133630CF91BF91AF919F918F917F916F915F9146
S11336404F913F912F911F910F91FF90EF90DF9039
S1133650CF90BF90AF909F908F907F906F905F902E
S11336604F903F902F901F900F900FBE0F90089592
S113367081E008950F920FB6F8940F921F921124CF
S11336802F923F924F925F926F927F928F929F926E
S1133690AF92BF92CF92DF92EF92FF920F931F935C
S11336A02F933F934F935F936F937F938F939F9346
S11336B0AF93BF93CF93DF93EF93FF93A0918C02CB
S11336C0B0918D020DB60D920EB60D920E94CA18DD
S11336D0A0918C02B0918D02CD91CDBFDD91DEBF62
S11336E0FF91EF91DF91CF91BF91AF919F918F9116
S11336F07F916F915F914F913F912F911F910F9106
S1133700FF90EF90DF90CF90BF90AF909F908F90FD
S11337107F906F905F904F903F902F901F900F90ED
S11337200FBE0F9008950F920FB6F8940F921F9248
S113373011242F923F924F925F926F927F928F92B9
S11337409F92AF92BF92CF92DF92EF92FF920F932C
S11337501F932F933F934F935F936F937F938F9315
S11337609F93AF93BF93CF93DF93EF93FF93A09176
S11337708C02B0918D020DB60D920EB60D920E9480
S11337803F1781110E94CA18A0918C02B0918D023A
S1133790CD91CDBFDD91DEBFFF91EF91DF91CF9150
S11337A0BF91AF919F918F917F916F915F914F9155
S11337B03F912F911F910F91FF90EF90DF90CF9049
S11337C0BF90AF909F908F907F906F905F904F903D
S11337D03F902F901F900F900FBE0F9008950E945E
S11337E0931B1895FC01218D30E0205F3F4F828DA3
S11337F0A901481B5109CA018F7099270895FC013A
S1133800918D828D981731F0828DE80FF11D858D91
S113381090E008958FEF9FEF0895FC01918D828DC4
S1133820981761F0828DDF01A80FB11D5D968C9110
S1133830928D9F5F9F70928F90E008958FEF9FEF1E
S11338400895FC01238D348D231738F08FE090E028
S1133850821B9109830F911D0895832F90E0821B91
S1133860910901970895FC0181E0808F938D848DE7
S1133870981307C0A089B1898C9185FD04C080E0AC
S113388003C080E001C081E0882391F09FB7F894E1
S113389081E0882359F0A689B7896C93A089B189FE
S11338A08C91837080648C9380E0F3CF9FBF53C06E
S11338B0838D90E001968F709078992324F401977A
S11338C0806F9F6F0196982F848D981330C00FB628
S11338D007FCFACFA089B1898C9185FFF5CF848D3F
S11338E0DF01A80FB11D9D968C91248D30E02F5FD0
S11338F03F4F2F703078332334F421503109206F37
S11339003F6F2F5F3F4F248FA689B7898C93A0897F
S1133910B1898C91837080648C93238D848D28135A
S1133920D3CFA289B3898C918F7D8C93CDCF838D96
S1133930DF01A80FB11D9D966C932FB7F89481E019
S1133940882341F0938FA289B3898C9180628C93F0
S113395080E0F6CF2FBF81E090E00895CF93DF930E
S1133960DC0158968C915897882309F45FC05296CD
S1133970ED91FC915397908195FD09C05096CD919E
S1133980DC915197988196FD04C0982F03C0982F1D
S113399001C090E0992309F449C00FB607FC05C0A3
S11339A0208125FD03C090E001C090E09923F9F245
S11339B05096ED91FC915197908195FFD8CF5C96EC
S11339C09C915C97FD01E90FF11D95A55C962C91E6
S11339D05C9730E02F5F3F4F2F703078332334F4FF
S11339E021503109206F3F6F2F5F3F4F5C962C931E
S11339F05C975696ED91FC91579790835096ED9174
S1133A00FC91519790819370906490835B962C9174
S1133A105B975C969C915C972913A9CF5296ED9184
S1133A20FC91539790819F7D9083A1CFDF91CF919B
S1133A300895BF92CF92DF92EF92FF920F931F935C
S1133A40CF93DF93EC016A017B01B22E8C01035CFE
S1133A501F4FF80180819181A281B381BC01CD0106
S1133A6096958795779567959695879577956795B4
S1133A70A70196010E942C22DA01C9010197A1092C
S1133A80B109B695A795979587959C01E889F98919
S1133A9082E08083F80180819181A281B3818115C4
S1133AA09442A44FB10531F4C11441EED406E104AB
S1133AB0F10421F0211580E1380708F1E889F9893A
S1133AC01082FE01FD9680819181A281B381BC01A7
S1133AD0CD01689412F89695879577956795169415
S1133AE0D1F7A70196010E942C22DA01C90101979E
S1133AF0A109B109B695A795979587959C01EC8581
S1133B00FD853083EE85FF852083188EEC89FD8941
S1133B10B082EA89FB89808180618083EA89FB899C
S1133B20808188608083EA89FB89808180688083C2
S1133B30EA89FB8980818F7D8083DF91CF911F91FA
S1133B400F91FF90EF90DF90CF90BF900895019771
S1133B50D9F56F3F7F4FC1F5EEE6F8E0138212828C
S1133B6088EE93E0A0E0B0E084839583A683B783D6
S1133B708EEA91E09183808385EC90E09587848739
S1133B8084EC90E09787868780EC90E0918B808B23
S1133B9081EC90E0938B828B82EC90E0958B848B0C
S1133BA086EC90E0978B868B118E128E138E148E7A
S1133BB080E094E2A4EFB0E08093AB089093AC086B
S1133BC0A093AD08B093AE0808951F920F920FB65C
S1133BD00F9211242F938F939F93AF93BF93EF93DF
S1133BE0FF93E0917E08F0917F08808182FD14C0EC
S1133BF0EEE6F8E0A689B7892C91818D8F5F8F70EE
S1133C00928D891771F0DF01E18DF0E0E259F74FF1
S1133C10258F59968C9305C0E0918408F09185080E
S1133C208081FF91EF91BF91AF919F918F912F91DF
S1133C300F900FBE0F901F9018951F920F920FB602
S1133C400F9211242F938F939F93AF93BF93EF936E
S1133C50FF93AEE6B8E05C96EC915C97F0E0E25935
S1133C60F74F25A55C968C9190E001968F70907823
S1133C70992324F40197806F9F6F0196EEE6F8E094
S1133C80848FA689B7892C93A089B1898C9183707C
S1133C9080648C93938D848D981307C0E091800881
S1133CA0F091810880818F7D8083FF91EF91BF9196
S1133CB0AF919F918F912F910F900FBE0F901F90F6
S1133CC018956FEF7FEF81E090E00E94A71D0895A3
S1133CD0CF92DF92EF92FF920F931F93CF93DF93D4
S1133CE08C01DB01C0E0D0E07A0181E0E81AF10840
S1133CF0452BA1F0F80180819181FC012081318163
S1133D006D01FFEFCF1ADF0A6C91C801F901099523
S1133D10892B21F02196A701D601E6CFCE01DF91B0
S1133D20CF911F910F91FF90EF90DF90CF90089566
S1133D306115710581F0FB0101900020E9F73197CD
S1133D40AF01461B570BDC01ED91FC910280F3811E
S1133D50E02D0995089580E090E00895DC01ED914F
S1133D60FC910190F081E02D09950895DC01ED911D
S1133D70FC910280F381E02D42E050E06CEB71E0B5
S1133D80099508950F931F93CF93DF93EC010E943D
S1133D90981E8C01CE010E94B61E800F911FDF91E8
S1133DA0CF911F910F9108958F929F92AF92BF92DE
S1133DB0DF92EF92FF920F931F93CF93DF93CDB7D0
S1133DC0DEB7A1970FB6F894DEBF0FBECDBF7C015E
S1133DD0CB01BA01D22E19A221E02D1520F00F2E0D
S1133DE0FAE0DF2EF02D8E010F5D1F4F8D2C912CEC
S1133DF0A12CB12CA50194010E942C22E62F622F44
S1133E00732F842F952F01501109EA3010F4E05DCF
S1133E1001C0E95CD801EC93611571058105910538
S1133E2029F70115110591F0F80101900020E9F737
S1133E303197AF01401B510BD701ED91FC910280EA
S1133E40F381E02DB801C701099502C080E090E03C
S1133E50A1960FB6F894DEBF0FBECDBFDF91CF9110
S1133E601F910F91FF90EF90DF90BF90AF909F90C4
S1133E708F900895CF92DF92EF92FF920F931F934A
S1133E80CF93DF93EC016A017B012115310541F4E5
S1133E90E881F9810190F081E02D642F09951DC01E
S1133EA02A303105C1F4772394F46DE20E94AE1EEA
S1133EB08C0144275527BA014C195D096E097F0905
S1133EC02AE0CE010E94D41E800F911F06C02AE072
S1133ED00E94D41E02C00E94D41EDF91CF911F9174
S1133EE00F91FF90EF90DF90CF9008959A01AB016E
S1133EF0770F660B770B0E943A1F08952115310541
S1133F0049F4DC01ED91FC910190F081E02D642FE6
S1133F10099508950E94D41E08959A01AB0160E0AA
S1133F2070E00E947E1F08950F931F93CF93DF9339
S1133F30EC010E947E1F8C01CE010E94B61E800FF0
S1133F40911FDF91CF911F910F9108954F925F922E
S1133F506F927F928F929F92AF92BF92CF92DF9295
S1133F60EF92FF920F931F93CF93DF938C014A013B
S1133F705B01F22E9A01AB01C501B4010E94172224
S1133F80882331F06FEB71E0C8010E94981EB5C020
S1133F9024013501E89477F82FEF3FEF4FE75FE70F
S1133FA0C301B2010E941722811110C02FEF3FEF0D
S1133FB04FE75FE7C301B2010E941021181634F4E1
S1133FC063EC71E0C8010E94981E97C02FEF3FEF89
S1133FD04FE75FE4C501B4010E94A521181634F42B
S1133FE067EC71E0C8010E94981E87C02FEF3FEF75
S1133FF04FE75FECC501B4010E941021882334F41B
S113400067EC71E0C8010E94981E77C020E030E0A0
S1134010A901C501B4010E941021882354F46DE262
S1134020C8010E94AE1E6C01B7FAB094B7F8B09400
S113403002C0C12CD12CD0E060E070E080E09FE3AE
S1134040DF1540F420E030E040E251E40E94C21267
S1134050DF5FF6CF9B01AC01C501B4010E94A4202F
S11340604B015C010E9415212B013C010E9444215B
S11340709B01AC01C501B4010E94A3204B015C016A
S11340802AE030E0B301A201C8010E947E1FE601CC
S1134090C80FD91FFF2031F06EE2C8010E94AE1E86
S11340A0C80FD91F77247A947F0CFF2021F120E0D8
S11340B030E040E251E4C501B4010E94AA214B0161
S11340C05C010E9415216B017C014AE050E0C801AB
S11340D00E948D1FC80FD91FB60180E090E00E9496
S11340E044219B01AC01C501B4010E94A3204B01F2
S11340F05C01F72CD7CF8C2F9D2FDF91CF911F918F
S11341000F91FF90EF90DF90CF90BF90AF909F9072
S11341108F907F906F905F904F9008950E94A61F9C
S113412008950F931F93CF93DF93EC010E948E2089
S11341308C01CE010E94B61E800F911FDF91CF919A
S11341401F910F9108955058BB27AA270E94BB20A6
S11341500C944B130E943D1338F00E94441320F03A
S113416039F49F3F19F426F40C943A130EF4E095B5
S1134170E7FB0C943413E92F0E945C1358F3BA172D
S1134180620773078407950720F079F4A6F50C9469
S11341907E130EF4E0950B2EBA2FA02D0B01B9015E
S11341A090010C01CA01A0011124FF27591B99F0A9
S11341B0593F50F4503E68F11A16F040A22F232FB5
S11341C0342F4427585FF3CF469537952795A79505
S11341D0F0405395C9F77EF41F16BA0B620B730BAC
S11341E0840BBAF09150A1F0FF0FBB1F661F771F1D
S11341F0881FC2F70EC0BA0F621F731F841F48F4D2
S1134200879577956795B795F7959E3F08F0B0CF5A
S11342109395880F08F09927EE0F97958795089541
S11342200E94812108F481E008950E94641388F0BB
S11342309F5798F0B92F9927B751B0F0E1F0660F66
S1134240771F881F991F1AF0BA95C9F714C0B130A7
S113425091F00E947E13B1E008950C947E13672FB1
S1134260782F8827B85F39F0B93FCCF386957795D6
S11342706795B395D9F73EF49095809570956195BF
S11342807F4F8F4F9F4F0895E89409C097FB3EF4EA
S113429090958095709561957F4F8F4F9F4F99238F
S11342A0A9F0F92F96E9BB279395F695879577950D
S11342B06795B795F111F8CFFAF4BB0F11F460FFCD
S11342C01BC06F5F7F4F8F4F9F4F16C0882311F025
S11342D096E911C0772321F09EE8872F762F05C039
S11342E0662371F096E8862F70E060E02AF09A95D4
S11342F0660F771F881FDAF7880F9695879597F9C9
S11343000895990F0008550FAA0BE0E8FEEF161662
S11343101706E807F907C0F012161306E407F507B5
S113432098F0621B730B840B950B39F40A2661F029
S1134330232B242B252B21F408950A2609F4A140CC
S1134340A6958FEF811D811D08950E94812108F497
S11343508FEF08950E94BD210C944B130E943D13CE
S113436038F00E94441320F0952311F00C94341378
S11343700C943A1311240C947F130E945C1370F371
S1134380959FC1F3950F50E0551F629FF001729FF6
S1134390BB27F00DB11D639FAA27F00DB11DAA1F05
S11343A0649F6627B00DA11D661F829F2227B00D52
S11343B0A11D621F739FB00DA11D621F839FA00DDD
S11343C0611D221F749F3327A00D611D231F849F2D
S11343D0600D211D822F762F6A2F11249F57504084
S11343E09AF0F1F088234AF0EE0FFF1FBB1F661FFF
S11343F0771F881F91505040A9F79E3F510580F0C8
S11344000C9434130C947F135F3FE4F3983ED4F37D
S1134410869577956795B795F795E7959F5FC1F76B
S1134420FE2B880F911D9695879597F908950E9404
S11344308121880B990B0895DB018F939F930E9430
S11344404E22BF91AF91A29F800D911DA39F900D0D
S1134450B29F900D11240895A1E21A2EAA1BBB1B32
S1134460FD010DC0AA1FBB1FEE1FFF1FA217B3073C
S1134470E407F50720F0A21BB30BE40BF50B661F52
S1134480771F881F991F1A9469F760957095809516
S113449090959B01AC01BD01CF0108950E94E522D6
S11344A0A59F900DB49F900DA49F800D911D112484
S11344B00895689401C0E8948F929F92CF93DF93FC
S11344C00E946722DF91CF919F908F900895882456
S11344D09924F401E401B0E49F93AA279A158B046C
S11344E09C04ED05FE05CF05D007A10798F4AD2F78
S11344F0DC2FCF2FFE2FE92D982C892E982F872F74
S1134500762F652F542F432F322F2227B85031F79F
S1134510BF9127C01B2EBF91BB27220F331F441FFF
S1134520551F661F771F881F991F881C991CEE1F33
S1134530FF1FCC1FDD1FAA1FBB1F8A149B04EC05A1
S1134540FD05CE05DF05A007B10748F08A189B08D2
S1134550EC09FD09CE09DF09A00BB10B21601A9407
S1134560E1F62EF49401AF01BE01CD01000C0895D3
S11345702A0D3B1D4C1D5D1D6E1D7F1D801F911F4F
S113458008950024A7FD00942A0F301D401D501DDE
S1134590601D701D801D901D08952A193B094C094A
S11345A05D096E097F09800B910B08952A153B055F
S11345B04C055D056E057F05800791070895EE0F94
S11345C0FF1F0590F491E02D0994A29FB001B39FC1
S11345D0C001A39F700D811D1124911DB29F700D08
S11345E0811D1124911D08950F931F93CF93DF9381
S11345F0869F8001879F100D969F100D1124C8017E
S11346000E941023EC01009729F0A80160E070E0FB
S11346100E943A24CE01DF91CF911F910F9108950A
S11346200F931F93CF93DF938230910510F482E0B0
S113463090E0E091B108F091B20820E030E0A0E011
S1134640B0E0309719F140815181028113814817FC
S11346505907C8F08417950769F4109731F012963A
S11346600C93129713961C9327C00093B1081093D0
S1134670B20822C02115310519F04217530718F466
S11346809A01BD01EF01DF01F801DBCF21153105EE
S1134690F9F0281B390B2430310580F48A819B8181
S11346A06115710521F0FB019383828304C090930B
S11346B0B2088093B108FE01329644C0FE01E20FB5
S11346C0F31F8193919322503109398328833AC08F
S11346D02091AF083091B008232B41F420910201BE
S11346E0309103013093B0082093AF08209100016A
S11346F0309101012115310541F42DB73EB74091A8
S1134700040150910501241B350BE091AF08F09191
S1134710B008E217F307A0F42E1B3F0B2817390744
S113472078F0AC014E5F5F4F2417350748F04E0F09
S11347305F1F5093B0084093AF088193919302C0D8
S1134740E0E0F0E0CF01DF91CF911F910F91089548
S1134750CF93DF93009709F481C0FC013297138251
S11347601282A091B108B091B208109781F420810F
S11347703181820F931F2091AF083091B008281720
S1134780390751F5F093B008E093AF0867C0ED0125
S113479020E030E0CE17DF0740F44A815B819E01C0
S11347A041155105F1F0EA01F5CFD383C28340816D
S11347B05181840F951FC817D90759F488819981AD
S11347C0840F951F0296918380838A819B819383B2
S11347D082832115310529F4F093B208E093B108DE
S11347E03DC0E901FB83EA8349915991C40FD51F68
S11347F0EC17FD0761F480819181840F951F029667
S1134800E90199838883828193819B838A83E0E091
S1134810F0E012968D919C911397009719F0FD0189
S1134820DC01F7CF8D919C9111979D012E5F3F4F35
S1134830820F931F2091AF083091B00828173907D1
S113484069F4309729F41092B2081092B10802C0AA
S113485013821282B093B008A093AF08DF91CF9176
S11348600895FB01DC0102C001900D9241505040BB
S1134870D8F70895DC0101C06D9341505040E0F732
S11348800895DC01CB01FC01F999FECF06C0F2BD0D
S1134890E1BDF89A319600B40D9241505040B8F7FA
S10948A00895F894FFCF17
S11348A60000B3082000770020686F7572732C200F
S11348B600206D696E732C200020736563730020DD
S11348C661742000202C20006576657279200067CB
S11348D665742054656D70005432630054326F0061
S11348E65431630054316F00665F6370750054770A
S11348F66400546D6400636C6F636B0054696D658A
S1134906203D2000706C616E0065766572790065E5
S113491672726F72206E6F20636F6D6D616E6420AC
S11349266E616D6500756E6B6E6F776E2061726772
S1134936756D656E74206F6620636F6D6D616E6450
S1134946206765740049444C450000000000331C90
S1134956681E211CAE1CF21B0D1CFF1B0D0A006EEB
S10F4966616E00696E66006F76660000EA
S9030000FC
