:100000000C9434000C9451000C9451000C94510049
:100010000C9451000C9451000C9451000C9451001C
:100020000C9451000C9451000C9451000C9451000C
:100030000C9451000C9451000C9451000C945100FC
:100040000C9451000C9451000C9486000C945100B7
:100050000C94C2000C9451000C9451000C9451006B
:100060000C9451000C94510011241FBECFEFD8E026
:10007000DEBFCDBF11E0A0E0B1E0EAEFF2E002C0E8
:1000800005900D92AC30B107D9F721E0ACE0B1E0BA
:1000900001C01D92A93DB207E1F70E94E9000C944E
:1000A0007B010C9400009093C5008093C400E1ECA8
:1000B000F0E088E180838081806C80838EE0809393
:1000C000C200089580917201811103C010920C0149
:1000D0000895A1E7B1E0EC9191E09E0F9C938150CF
:1000E00080937201F0E0E35FFE4F80818093C60051
:1000F000089580910C01811108C081E080930C016A
:100100008091C00085FD0E94620008951F920F92A9
:100110000FB60F9211242F933F934F935F936F93DA
:100120007F938F939F93AF93BF93EF93FF934091F0
:10013000C6003091D7012091D801822F90E0830F23
:10014000911D64E670E00E945301381302C0211132
:1001500008C09927FC01ED58FE4F40832F5F209384
:10016000D801FF91EF91BF91AF919F918F917F91B6
:100170006F915F914F913F912F910F900FBE0F9014
:100180001F9018951F920F920FB60F9211242F9364
:100190003F934F935F936F937F938F939F93AF930F
:1001A000BF93EF93FF9380910C0181110E94620035
:1001B000FF91EF91BF91AF919F918F917F916F913F
:1001C0005F914F913F912F910F900FBE0F901F9015
:1001D00018958FEF84B98AB18C6F8AB9789480E1D1
:1001E00090E00E9453008BB183708BB98BB18C630C
:1001F0008BB92FEF83ED90E3215080409040E1F7E1
:1002000000C000008BB1837C8BB98091D80188231A
:10021000E1F38BB1837E8BB9A7EDB1E0EC9181E086
:100220008E0F8C93A8EDB1E08C9181508C93F0E00F
:10023000ED58FE4FC0813091710120917201822FE3
:1002400090E0830F911D64E670E00E945301381323
:1002500002C0211108C09927FC01E35FFE4FC08353
:100260002F5F209372010E9479008C2F90E0C0973D
:100270006AE070E00E945301FC01FF27E050FF4F4D
:10028000808190E0880F991F880F991F3BB13370D0
:10029000282F2C7F832F822B8BB985B18E7F917075
:1002A000892B85B9B2CF97FB072E16F4009407D09F
:1002B00077FD09D00E94670107FC05D03EF49095B8
:1002C00081959F4F0895709561957F4F0895AA1B62
:1002D000BB1B51E107C0AA1FBB1FA617B70710F031
:1002E000A61BB70B881F991F5A95A9F78095909563
:0A02F000BC01CD010895F894FFCF82
:0C02FA003F065B4F666D7D077F6F0000C4
:00000001FF
