S01700004763634170706C69636174696F6E322E737265635A
S11300000C943E000C9453000C9453000C94530035
S11300100C9453000C9453000C9453000C94530010
S11300200C9453000C9453000C9453000C94530000
S11300300C9453000C9453000C9453000C945300F0
S11300400C9453000C9453000C9453000C945300E0
S11300500C9453000C9453000C9453000C945300D0
S11300600C9453000C9453000C9453000C945300C0
S11300700C9453000C9453000C94530011241FBE91
S1130080CFEFD8E0DEBFCDBF11E0A0E0B1E0E6E104
S1130090F1E002C005900D92A030B107D9F70E949B
S11300A055000C9489000C9400008FEF8AB98FE0FE
S11300B084B920E04AE054E6822F642F0E947D0038
S11300C0392F0E947D0060E1969FC0011124832B8B
S11300D08BB985B1382F307F822F652F0E947D0028
S11300E0832B85B98FEF94E33CE0815090403040FE
S11300F0E1F700C000002F5FDFCF991B79E004C057
S1130100991F961708F0961B881F7A95C9F7809552
S10901100895F894FFCFEE
S9030000FC
