S01700004763634170706C69636174696F6E322E737265635A
S11300000C943E000C9453000C9453000C94530035
S11300100C9453000C9453000C9453000C94530010
S11300200C9453000C9453000C9453000C94530000
S11300300C9453000C9453000C9453000C945300F0
S11300400C9453000C9453000C9453000C945300E0
S11300500C9453000C9453000C9453000C945300D0
S11300600C9453000C9453000C9453000C945300C0
S11300700C9453000C9453000C94530011241FBE91
S1130080CFEFD8E0DEBFCDBF11E0A0E0B1E0E8EEF5
S1130090F0E002C005900D92AC30B107D9F70E9490
S11300A055000C9472000C9400008CEF8AB981E026
S11300B084B980E0E82FF0E0E050FF4F208194E025
S11300C0299F900111242BB935B92FEF33ED90E31B
S11300D0215030409040E1F700C00000893049F3DE
S10B00E08F5FE8CFF894FFCF15
S10F00E83F065B4F666D7D077F6F0000D4
S9030000FC
