:100000000C9434000C9446000C9446000C9446006A
:100010000C9446000C9446000C9446000C94460048
:100020000C9446000C9446000C9446000C945C0022
:100030000C9446000C9446000C9446000C94460028
:100040000C9446000C9446000C9446000C94460018
:100050000C9446000C9446000C9446000C94460008
:100060000C9446000C94460011241FBECFEFD8E03C
:10007000DEBFCDBF21E0A0E0B1E001C01D92A13004
:10008000B207E1F70E9470000C947E000C9400000F
:10009000E1E8F0E0808188608083AFE6B0E08C9199
:1000A00082608C938CE38093890082E9809388003E
:1000B00080818460808308951F920F920FB60F9203
:1000C00011248F939F939091000181E08927809361
:1000D00000019F918F910F900FBE0F901F90189568
:1000E000109200010E9448008FEF8AB990910001A0
:1000F000992311F08BB9FACF1BB8F8CFF894FFCF42
:00000001FF
