S01100005030303655534152542E737265639E
S11300000C9434000C9446000C9446000C94460066
S11300100C9446000C9446000C9446000C94460044
S11300200C9446000C9446000C9446000C94460034
S11300300C9446000C9446000C9446000C94460024
S11300400C9446000C9446000C947C000C944600DE
S11300500C94BD000C9446000C9446000C9446008D
S11300600C9446000C94460011241FBECFEFD8E038
S1130070DEBFCDBF21E0A0E0B1E001C01D92A736F4
S1130080B207E1F70E94E5000C9485010C9400008E
S11300909093C5008093C400E1ECF0E088E1808394
S11300A08081806C80838EE08093C200089580916B
S11300B06601811103C0109200010895289AE0910D
S11300C0650191E09E0F90936501815080936601D4
S11300D0F0E0EF5FFE4F80818093C6000895809129
S11300E00001811108C081E0809300018091C0006B
S11300F085FD0C94570008951F920F920FB60F922E
S113010011242F933F934F935F936F937F938F9318
S11301109F93AF93BF93EF93FF9385B195B1909560
S113012090FB80F985B94091C6003091650120911A
S11301306601822F90E0830F911D64E670E00E94B7
S11301405D01381739F0FC01EF5FFE4F40832F5FEC
S1130150209366010E946F00FF91EF91BF91AF91D0
S11301609F918F917F916F915F914F913F912F91CB
S11301700F900FBE0F901F9018951F920F920FB6FD
S11301800F9211242F933F934F935F936F937F9319
S11301908F939F93AF93BF93EF93FF932D9A809187
S11301A0000181110E945700FF91EF91BF91AF911F
S11301B09F918F917F916F915F914F913F912F917B
S11301C00F900FBE0F901F9018958FEF84B92D9A42
S11301D02FEF83ED90E3215080409040E1F700C081
S11301E000002D982FEF83ED90E321508040904044
S11301F0E1F700C00000789440916501242F30E0BD
S1130200E0916601C9018E0F911D64E670E00E94C1
S11302105D01481741F0DC01AF5FBE4F58E65C93C7
S1130220EF5FE0936601E0916601C9018E0F911DB5
S113023064E670E00E945D01481741F0DC01AF5FA5
S1130240BE4F55E65C93EF5FE0936601E091660173
S1130250C9018E0F911D64E670E00E945D0148178C
S113026041F0DC01AF5FBE4F5CE65C93EF5FE0936F
S11302706601E0916601C9018E0F911D64E670E08C
S11302800E945D01481741F0DC01AF5FBE4F2CE6D0
S11302902C93EF5FE093660189E190E00E944800AF
S11302A00E946F002FEF83ED90E321508040904037
S11302B0E1F700C000002898F5CF97FB072E16F44D
S11302C0009407D077FD09D00E94710107FC05D086
S11302D03EF4909581959F4F0895709561957F4F59
S11302E00895AA1BBB1B51E107C0AA1FBB1FA61779
S11302F0B70710F0A61BB70B881F991F5A95A9F7CB
S111030080959095BC01CD010895F894FFCF2F
S9030000FC
