S01300005030303541726475696E6F2E737265635A
S11300000C9434000C9446000C9446000C94460066
S11300100C9446000C9446000C9446000C94460044
S11300200C9446000C9446000C9446000C94460034
S11300300C9446000C9446000C9446000C94460024
S11300400C9446000C9446000C9446000C94460014
S11300500C9446000C9446000C9446000C94460004
S11300600C9446000C94460011241FBECFEFD8E038
S1130070DEBFCDBF21E0A0E0B1E001C01D92A03001
S1130080B207E1F70E9448000C949C000C94000015
S1130090CF93DF9300D000D000D0CDB7DEB78AE293
S11300A090E0FC01808189838981882F90E00E94FF
S11300B082008A8383E090E09C838B8382E090E0DB
S11300C09E838D8303C08A818F5F8A832B813C81C9
S11300D08D819E81280F391F8A81882F90E0820F9D
S11300E0931F21E0009709F420E0222361F780E0C8
S11300F090E00F900F900F900F900F900F90DF9162
S1130100CF9108950E948C008F93892F0E948C00B8
S113011099270F90800D0895082E817006940694F7
S1130120811D0694811D0694811D0694811D0694EB
S10F0130811D0694801D0895F894FFCFF3
S9030000FC
