:100000000C9434000C9451000C9451000C94510049
:100010000C9451000C9451000C9451000C9451001C
:100020000C9451000C9451000C9451000C946206F5
:100030000C9451000C9451000C9451000C945100FC
:100040000C9451000C9451000C9451000C945100EC
:100050000C9451000C9451000C9451000C945100DC
:100060000C9451000C94510011241FBECFEFD8E026
:10007000DEBFCDBF11E0A0E0B1E0EEECFCE002C0DD
:1000800005900D92A630B107D9F727E0A6E0B1E0C0
:1000900001C01D92AC34B207E1F70E9481000C94BC
:1000A00065060C9400000E944E028BB184608BB9EF
:1000B0000E940F0388EE93E00E948E030E944E027E
:1000C0008BB18B7F8BB90E940F0388EE93E00E9467
:1000D0008E03E9CF0E944E028BB188608BB90E94DB
:1000E0000F0384EF91E00E948E030E944E028BB1B9
:1000F000877F8BB90E940F0384EF91E00E948E03EB
:10010000E9CF8AB18C608AB98FEF8BB9E12CF12CE1
:1001100002E020E030E040E850E060E070E083E59D
:1001200090E00E94170120E030E040E850E060E0FD
:1001300070E08AE690E00E9417010E942402FFCF3F
:10014000E0913201F09133018081811107C08FEF7E
:100150009FEF90930A01809309010895E091320185
:10016000F09133010580F681E02D0680F781E02DC6
:100170008281938190930A01809309010895FF92EF
:100180000F931F93CF93DF93EC01F62E0091110193
:100190001091120180916A0190916B0102960E9468
:1001A000DF04CF3F8FEFD80769F4FF2059F060914B
:1001B0006A0170916B016E5F7F4F84E191E00E9454
:1001C0008D042FC0C00FD11FE0916A01F0916B0127
:1001D000D383C283C017D10768F460916A0170911C
:1001E0006B0180913001909131016E5F7F4F0E94D1
:1001F000AE0417C060916A0170916B018091320169
:10020000909133016E5F7F4F0E94AE04809109018F
:1002100090910A01C817D90720F4D0930A01C0931E
:100220000901DF91CF911F910F91FF9008954F9297
:100230005F926F927F928F929F92AF92BF92CF9276
:10024000DF92EF92FF920F93CF93DF934C016B01FC
:100250005A012901CA010E9445043C01892B09F475
:10026000E2C086E290E00E944504EC01892B71F027
:10027000788E6F8A81E0A81AB108A60CB71CD60147
:100280008C91898F8C91811105C018C0C3010E9487
:100290007A04C9C0AE01465E5F4FF6013196B8E000
:1002A000CB0ED11CCF012191DA012D93AD01DC01E0
:1002B0008C91882319F0EC15FD05A1F718A20430E4
:1002C00008F003E00E8B6E01B2E0CB0ED11CC6012C
:1002D0000E948904CE010C960E948904D987C887A0
:1002E00084E090E0801B91099D878C87DB8BCA8B13
:1002F00019A21AA21BA21CA21DA2A201B401C5012F
:100300000E94050599838883E114F10419F0F7012F
:10031000D183C0830FB6F8940F92809113018F5F41
:100320008093130180916A0190916B01892BD1F523
:10033000D0936B01C0936A0180911301813009F061
:1003400041C086E491E00E947B048FE491E00E942A
:100350007B0488E591E00E947B0481E691E00E94A5
:100360007B048DE391E00E947B0484E391E00E9492
:100370007B0487E291E00E947B048EE191E00E9481
:100380007B0484E191E00E947B048DE391E09093F3
:1003900033018093320184E391E0909331018093A3
:1003A000300110C080910F0181110CC0E0916A01F1
:1003B000F0916B0196898E89891720F0D0936B019B
:1003C000C0936A0180910B018F5F80930B018E892E
:1003D00090911001981710F48093100190E09C0107
:1003E000220F331F220F331F220F331F820F931F41
:1003F000B6018A5B9E4F0E948D040F900FBE8091C4
:100400000F01882361F0E0916A01F0916B019689F8
:100410008E89981730F40E94AD0581E005C081E017
:1004200003C081E001C08FEFDF91CF910F91FF906A
:10043000EF90DF90CF90BF90AF909F908F907F9084
:100440006F905F904F900895EF92FF920F930F2E51
:10045000F7E0EF2EF1E0FF2EF02D00E020E030E09D
:1004600045E550E060E071E082EA93E00E94170108
:10047000813081F4F8948FEF9FEF90930A0180937D
:10048000090181E080930F01109212011092110175
:100490000E9471050F91FF90EF90089580910601E1
:1004A0008F5F809306010895CF92DF92EF92FF92C3
:1004B0000F931F93CF93DF9380910601811199C011
:1004C000E0901101F09012018FEFE81AF80AF09213
:1004D0001201E0921101E114F104B9F480913201AA
:1004E00090913301209130013091310130933301EB
:1004F00020933201909331018093300180910C015F
:100500008F5F80930C010E94A0008091090190915F
:100510000A01E816F90610F4D12C53C0D12CCC24D2
:10052000C394E0913201F09133018081811107C0C1
:100530008FEF9FEF90930A018093090142C0E091F1
:100540003201F09133010580F681E02DC681D7811B
:100550008A819B81E816F90628F490930A0180931A
:1005600009012FC08E010E5F1F4FC8010E94DF04DA
:100570008C899D89892B21F0CE010C960E94DF0485
:100580008E8990911001981710F48093100190E0DB
:100590009C01220F331F220F331F220F331F820FA4
:1005A000931FB8018A5B9E4F0E948D04E0916A01FF
:1005B000F0916B019E898689981708F4B2CFDC2CE4
:1005C000B0CFE0916A01F0916B01868990E0FC0167
:1005D000EE0FFF1FEE0FFF1FEE0FFF1F8E0F9F1F6F
:1005E000FC01EA5BFE4F8081823048F0DD24D39429
:1005F00006C080910E018F5F80930E01D12C8091F7
:100600000D01882311F0DD24D3948D2DDF91CF913E
:100610001F910F91FF90EF90DF90CF900895DF92A0
:10062000EF92FF920F931F93CF93DF930FB6F8943F
:100630000F928091060181508093060180910601FE
:1006400081115FC080911301811133C05DC0D7015A
:100650001596ED91FC911697C681D781CE010C9627
:100660000E94DF048E010E5F1F4FC8010E94DF044D
:100670008E8990911001981710F48093100190E0EA
:100680009C01220F331F220F331F220F331F820FB3
:10069000931FB8018A5B9E4F0E948D04E0916A010E
:1006A000F0916B019E898689981768F0D0920D01B0
:1006B0000AC0C0E0D0E00F2EF7E2EF2EF1E0FF2EEF
:1006C000F02DDD24D394F70180818111C0CFCD2B93
:1006D00011F00E94A000C0910E01CC2351F0D1E096
:1006E0000E9454028111D0930D01C150C9F710929C
:1006F0000E0180910D01882331F00E94AD0581E04B
:1007000003C080E001C080E00F900FBEDF91CF9169
:100710001F910F91FF90EF90DF900895CF93DF939B
:10072000EC01892B51F00E944E0260E0CE010E9444
:10073000BF000E940F03811102C00E94AD05DF912E
:10074000CF9108950EE111E00F2EF6E4EF2EF1E0C7
:10075000FF2EF02D29C00E944E02D801CC910E949C
:100760000F03CC2309F10FB6F8940F92D801159618
:10077000ED91FC911697C681D781CE0102960E9419
:10078000DF048091130181508093130180911D013A
:10079000815080931D010F900FBE8F89988D0E940C
:1007A0007A04CE010E947A0480911D018111D3CF79
:1007B000F70180818230C0F30E94AD05F5CF8091B2
:1007C0000601882321F081E080930D0108951092A5
:1007D0000D0120911001822F90E0FC01EE0FFF1F10
:1007E000EE0FFF1FEE0FFF1FE80FF91FEA5BFE4F32
:1007F0003081311111C02150822F90E0FC01EE0FA9
:10080000FF1FEE0FFF1FEE0FFF1FE80FF91FEA5B40
:10081000FE4F3081332379F3AC01440F551F440F51
:10082000551F440F551F480F591FDA01AA5BBE4FD1
:100830001196ED91FC9112970280F381E02D1296B2
:10084000FC93EE931197475B5E4FE417F50729F48D
:1008500042815381FD0152834183FC01EE0FFF1F52
:10086000EE0FFF1FEE0FFF1F8E0F9F1FFC01EA5BB5
:10087000FE4F0180F281E02D8681978190936B017C
:1008800080936A01209310010895CF93DF93EC01C8
:100890000E944E0280916C0190916D01892B31F480
:1008A00081E791E090936D0180936C0120916E013E
:1008B00030916F01C9018C0F9D1F8B3D45E094075E
:1008C00070F42817390770F4C0916C01D0916D0154
:1008D000C20FD31F90936F0180936E0105C0C0E0DB
:1008E000D0E002C0C0E0D0E00E940F03CE01DF9153
:1008F000CF9108950895FC010396928381832FEF91
:100900003FEF348323839683858390878783108288
:100910000895FC01118610860895CF93DF939C0102
:10092000FB01DC011196CD91DC911297D383C28338
:100930008C819D81958384838C819D81DC011396BC
:100940007C936E9312977D836C8331872087F901A6
:1009500080818F5F8083DF91CF910895CF93DF9364
:10096000EB01488159814F3F2FEF520721F4FC01E1
:10097000A781B0850DC0DC01139601C0DF0112967E
:10098000ED91FC9113972081318142175307B0F705
:100990001296ED91FC911397FB83EA83D583C48370
:1009A000BD83AC831396DC93CE9312979987888787
:1009B000FC0120812F5F2083DF91CF910895CF9399
:1009C000DF93FC01A085B185C281D38184819581AB
:1009D0009D838C83C481D581828193819B838A830B
:1009E00011968D919C911297E817F90731F4848143
:1009F000958112969C938E931197118610868C91F7
:100A000081508C93DF91CF91089531E1FC013083C7
:100A1000319722E220833197A3E3A083319760834B
:100A20003197708331971082319760E860833197F6
:100A30001082319762E06083319763E06083319781
:100A400064E06083319765E06083319766E060839E
:100A5000319767E06083319768E06083319769E0A0
:100A60006083319760E1608331973083319732E161
:100A70003083319733E13083319734E130833197DC
:100A800035E13083319736E13083319737E1308378
:100A9000319738E13083319739E13083319730E253
:100AA0003083319731E2308331972083319723E2CD
:100AB00020833197408331975083319726E22083FA
:100AC000319727E22083319728E22083319729E26A
:100AD0002083319720E32083319721E32083869779
:100AE00008951092890089EF80938800E1E8F0E092
:100AF00080818B608083EFE6F0E08081826080837C
:100B0000A0916A01B0916B01CD91CDBFDD91DEBFA7
:100B1000FF91EF91DF91CF91BF91AF919F918F9115
:100B20007F916F915F914F913F912F911F910F9105
:100B3000FF90EF90DF90CF90BF90AF909F908F90FD
:100B40007F906F905F904F903F902F901F900F90ED
:100B50000FBE0F90089581E008950F920FB6F8949C
:100B60000F921F9211242F923F924F925F926F9299
:100B70007F928F929F92AF92BF92CF92DF92EF922D
:100B8000FF920F931F932F933F934F935F936F9316
:100B90007F938F939F93AF93BF93CF93DF93EF9305
:100BA000FF93A0916A01B0916B010DB60D920EB644
:100BB0000D920E94DF03A0916A01B0916B01CD916B
:100BC000CDBFDD91DEBFFF91EF91DF91CF91BF915E
:100BD000AF919F918F917F916F915F914F913F91D5
:100BE0002F911F910F91FF90EF90DF90CF90BF90CA
:100BF000AF909F908F907F906F905F904F903F90BD
:100C00002F901F900F900FBE0F9008950F920FB668
:100C1000F8940F921F9211242F923F924F925F925D
:100C20006F927F928F929F92AF92BF92CF92DF92FC
:100C3000EF92FF920F931F932F933F934F935F93E6
:100C40006F937F938F939F93AF93BF93CF93DF93D4
:100C5000EF93FF93A0916A01B0916B010DB60D92D5
:100C60000EB60D920E94540281110E94DF03A091E2
:100C70006A01B0916B01CD91CDBFDD91DEBFFF91D7
:100C8000EF91DF91CF91BF91AF919F918F917F9124
:100C90006F915F914F913F912F911F910F91FF9015
:100CA000EF90DF90CF90BF90AF909F908F907F900C
:100CB0006F905F904F903F902F901F900F900FBEBE
:0E0CC0000F9008950E9406061895F894FFCF35
:060CCE0049444C45000002
:00000001FF
