:100000000C9434000C9451000C9451000C94510049
:100010000C9451000C9451000C9451000C9451001C
:100020000C9451000C9451000C9451000C9451000C
:100030000C9451000C9451000C9451000C945100FC
:100040000C9451000C9451000C9453000C945100EA
:100050000C94F0000C9451000C9451000C9451003D
:100060000C9451000C94510011241FBECFEFD8E026
:10007000DEBFCDBF11E0A0E0B1E0E2E0F3E002C0FE
:1000800005900D92AA30B107D9F721E0AAE0B1E0BE
:1000900001C01D92A533B207E1F70E9443010C9401
:1000A0007F010C9400001F920F920FB60F92112443
:1000B0002F933F934F935F936F937F938F939F9370
:1000C000AF93BF93CF93EF93FF93C091C6008091FE
:1000D0000A0181110FC08AE091E00E944A01892B38
:1000E00049F0E2E1F1E010A211A212A28AE091E04F
:1000F0000E94530180910A0181110FC08AE091E0B2
:100100000E944A01892B49F0E2E1F1E010A211A21C
:1001100012A28AE091E00E94530180913301803263
:1001200080F190913201E82FE90FEF71882311F0EF
:100130009E1739F08F5F80933301F0E0EE5EFE4F43
:10014000C0838091340181111CC081E0809334010F
:100150008091C00085FF15C080913301811103C0DB
:10016000109234010EC0E2E1F1E0815081A381E000
:10017000890F80A3E92FF0E0EE5EFE4F808180932F
:10018000C6008C2F90E0C0976AE070E00E94570193
:10019000FC01FF27E050FF4F808190E0880F991FFE
:1001A000880F991F3BB13370282F2C7F832F822B10
:1001B0008BB985B18E7F9170892B85B9FF91EF91B5
:1001C000CF91BF91AF919F918F917F916F915F91EF
:1001D0004F913F912F910F900FBE0F901F90189548
:1001E0001F920F920FB60F9211242F933F934F93AC
:1001F0005F936F937F938F939F93AF93BF93EF938F
:10020000FF9380910A0181110FC08AE091E00E9462
:100210004A01892B49F0E2E1F1E010A211A212A2F9
:100220008AE091E00E94530180913301811103C063
:100230001092340117C090913401992399F0A2E1F2
:10024000B1E0815091968C9391979096EC91909714
:1002500081E08E0F90968C93F0E0EE5EFE4F8081F1
:100260008093C600FF91EF91BF91AF919F918F91C5
:100270007F916F915F914F913F912F910F900FBEA2
:100280000F901F9018958FEF84B98AB18C6F8AB93F
:100290007894FFCFFC0181E090E02081222311F0CF
:1002A00080E090E0089521E0FC012083089597FB11
:1002B000072E16F4009407D077FD09D00E946B0139
:1002C00007FC05D03EF4909581959F4F0895709559
:1002D00061957F4F0895AA1BBB1B51E107C0AA1F60
:1002E000BB1FA617B70710F0A61BB70B881F991FD7
:1002F0005A95A9F780959095BC01CD010895F89481
:02030000FFCF2D
:0A0302003F065B4F666D7D077F6FBD
:00000001FF
