S010000050303131435457492E73726563FB
S11300000C9449000C9453000C9453000C9453002A
S11300100C9453000C9453000C9453000C94530010
S11300200C9453000C9453000C9453000C94530000
S11300300C9453000C9453000C9453000C945300F0
S11300400C9453000C9453000C94E1040C9453004E
S11300500C9407050C9453000C9453000C94530017
S11300600C9453000C945300C400E400C700E40053
S1130070CA00E400CD00E400D000E400D300E400B2
S1130080D600E400D900E400DC00E400DF00E40072
S1130090E20011241FBECFEFD8E0DEBFCDBF0E9427
S11300A011050C9428070C940000EF92FF920F9313
S11300B01F93CF93DF93EC010E945F040E946A04B4
S11300C00E949704883019F00E9497048EC060E063
S11300D087E70E9490040E949704883119F00E94D7
S11300E0970483C08AEA0E9478040E9497048832A5
S11300F019F00E94970479C00E9470040E946A0457
S11301000E949704883019F00E9497046EC061E041
S113011087E70E9490040E949704803409F458C031
S11301200E94970462C00E948004182F0E949704C2
S1130130803519F00E94970458C08EEBE816F1043C
S113014051F40E948804082F0E949704883569F0AE
S11301500E9497044AC00E948004082F0E949704BA
S1130160803519F00E94970440C0812F90E0982FA9
S11301708827802BF701EA5AF109E531F10520F5CA
S1130180EC5CFF4F0C940007998388831DC09B830C
S11301908A831AC09D838C8317C09F838E8314C067
S11301A09987888711C09B878A870EC09D878C8713
S11301B00BC09F878E8708C0998B888B05C09B8B4B
S11301C08A8B02C09D8B8C8B82E0E80EF11C05C0EB
S11301D00F2EFAEAEF2EF12CF02D8FEBE816F10436
S11301E00CF4A1CF0E94700480E0DF91CF911F91A5
S11301F00F91FF90EF9008950F931F93CF93DF9388
S1130200EC010E945F040E946A040E9497048830F3
S113021019F00E94970479C060E087E70E94900477
S11302200E949704883119F00E9497046EC084EFED
S11302300E9478040E949704883219F00E9497045F
S113024064C08EE20E9478040E949704883219F0F8
S11302500E9497045AC00E9470048FE496E40197A8
S1130260F1F700C000000E946A040E9497048830DD
S113027019F00E94970449C060E087E70E94900447
S11302800E949704883119F00E9497043EC086EFBB
S11302900E9478040E949704883219F00E949704FF
S11302A034C00E9470040E946A040E94970488303B
S11302B019F00E94970429C061E087E70E94900426
S11302C00E949704803419F00E9497041EC00E9473
S11302D08004182F0E949704803519F00E94970417
S11302E014C00E948804082F0E949704883519F0CE
S11302F00E9497040AC00E947004812F90E0982FF6
S11303008827802B9983888380E0DF91CF911F9188
S11303100F910895CF92DF92EF92FF920F931F9364
S1130320CF93DF93EB01FA0122853385DC01A21B15
S1130330B30B208531850E9406076B017C010B2ECF
S1130340BFE0F594E794D794C794BA95D1F7B02D4C
S113035062897389CB01770FAA0BBB0BBC01CD015A
S1130360052E5BE0660F771F881F991F5A95D1F7FA
S1130370502D248935898901330F220B330BA901B0
S113038098012C0D3D1D4E1D5F1D0E94E106D701F5
S1130390C601820F931FA41FB51F88839983AA8364
S11303A0BB830896A11DB11DBC01CD01689413F84F
S11303B095958795779567951694D1F70E942306AE
S11303C020E030E040E251E40E948005DF91CF91CB
S11303D01F910F91FF90EF90DF90CF900895DF92DF
S11303E0EF92FF920F931F93CF93DF93C82F8B014C
S11303F00E945F040E946A040E949704883019F0E6
S11304000E949704C4C060E087E70E9490040E94A1
S11304109704883119F00E949704B9C084EF0E94B0
S113042078040E949704883219F00E949704AFC0A0
S1130430EC2EF12CC7010024969587950794969588
S113044087950794982F802D84630E9478040E94D6
S11304509704883219F00E94970499C00E9470048E
S1130460C13069F028F0C23089F0C330B1F01EC049
S11304708FE496E40197F1F700C0000017C0EFE2A3
S1130480F5E73197F1F700C0000010C08FEE92ED50
S11304900197F1F700C0000009C09FEBEEE3F1E023
S11304A09150E040F040E1F700C000000E946A046F
S11304B00E949704883019F00E94970468C060E095
S11304C087E70E9490040E949704883119F00E94E3
S11304D097045DC086EF0E9478040E9497048832D6
S11304E019F00E94970453C00E9470040E946A0489
S11304F00E949704883019F00E94970448C061E074
S113050087E70E9490040E949704803419F00E94A7
S113051097043DC00E948004D82F0E949704803520
S113052019F00E94970433C00E948004D82E0E94C0
S11305309704803519F00E94970429C00E9488040A
S1130540C82F0E949704883519F00E9497041FC091
S11305500E9470048D2F90E0982F88278D29A0E0A9
S1130560B0E0BA2FA92F982F88278C2B28E030E0F1
S11305702E193F0904C0B695A795979587952A9596
S1130580D2F7F80180839183A283B38380E0DF9163
S1130590CF911F910F91FF90EF90DF9008954F92AC
S11305A05F926F927F928F929F92AF92BF92CF92FF
S11305B0DF92EF92FF920F931F93CF93DF9300D0BC
S11305C000D01F92CDB7DEB769837A838B839C8377
S11305D02D83F801DA018D909D90AD90BC90B0EA26
S11305E08B1ABFE09B0AA108B108E684F784A50131
S11305F09401C501B4010E94AF062B013C01032EF6
S11306003CE075946794579447943A95D1F7302D0C
S1130610D701A30192010E9420076B017C010B2EDC
S1130620BBE0F594E794D794C794BA95D1F7B02D6D
S1130630A281B381A50194010E942007DC01CB01B2
S1130640072E7BE0B595A795979587957A95D1F771
S1130650702DC80ED91EEA1EFB1E80819181092EC1
S1130660000CAA0BBB0B880F991FAA1FBB1F880F76
S1130670991FAA1FBB1FC80ED91EEA1EFB1E0D80A0
S113068004C0CC0CDD1CEE1CFF1C0A94D2F782E0E3
S1130690C80ED11CE11CF11CF594E794D794C794BF
S11306A0F594E794D794C794A481B5810E94200758
S11306B04B015C01072E7DE0B594A7949794879431
S11306C07A95D1F7702DA485B585A30192010E9476
S11306D02007BB2797FDB095AB2F880D991DAA1D48
S11306E0BB1D0296A11DB11DAC01BD017595679599
S11306F0579547957595679557954795A681B78101
S11307009A01AB0130584F4F5F4F0E9415074B01C0
S11307105C01072E7FE0B694A794979487947A950A
S1130720D1F7702D29813A814B815C812C193D09C7
S11307304E095F0980E593ECA0E0B0E0BC01CD0177
S11307400D8004C095958795779567950A94D2F79F
S11307500E94AF0699235CF0660F771F881F991FCC
S1130760A50194010E94BF0669017A010AC0A5018E
S113077094010E94BF0669017A01CC0CDD1CEE1CB9
S1130780FF1C9927F7FC9A958F2D7E2D6D2D9B01CB
S1130790AC010E94AF069B01AC01AEEDBBE00E9430
S11307A015074C01BB2497FCB094AB2CA3E4B3EE27
S11307B0A70196010E942307BB2797FDB095AB2F95
S11307C0880D991DAA1DBB1D8153914FAF4FBF4F7B
S11307D0689413F8B595A795979587951694D1F7CE
S11307E0BC01CD016C0D7D1D8E1D9F1D0F900F90C2
S11307F00F900F900F90DF91CF911F910F91FF9069
S1130800EF90DF90CF90BF90AF909F908F907F90AC
S11308106F905F904F900895CF92DF92FF920F9365
S11308201F93CF93DF93CDB7DEB72A970FB6F89413
S1130830DEBF0FBECDBFF82E6B018A01CE0101963B
S11308400E94FC0081112AC0BE016D5F7F4F8F2D75
S11308500E94EF01811124C01F82188619861A860E
S1130860A801BE01695F7F4F89819A810E948A0134
S1130870F60160837183828393836B817C818D8194
S11308809E812F2DAE01495F5F4F0E94CF02F6017A
S1130890648375838683978380E003C081E001C00D
S11308A082E02A960FB6F894DEBF0FBECDBFDF916B
S11308B0CF911F910F91FF90DF90CF90089588E41E
S11308C08093B8001092B90008958091BC008823E9
S11308D0E4F7089584EA8093BC000E9465040895B7
S11308E084E98093BC008091BC0084FDFCCF089512
S11308F08093BB0084E88093BC000E946504089543
S113090084EC8093BC000E9465048091BB00089530
S113091084E88093BC000E9465048091BB00089524
S113092090E0880F991F862B0E9478040895809187
S1130930B90008959093C5008093C400E1ECF0E001
S113094088E180838081806C80838EE08093C20004
S113095008959091C00095FFFCCF8093C600089540
S113096029E2829F212D112422952F7039F0909134
S1130970C00095FFFCCF205D2093C60099E2899FBB
S1130980912D112492959F7024E6929F8019112431
S1130990982F8DEC989F912D112496959695969568
S11309A041F08091C00085FFFCCF80E3890F8093E4
S11309B0C6008091C00085FFFCCF905D9093C60077
S11309C008951F920F920FB60F9211242F933F9305
S11309D04F935F936F937F938F939F93AF93BF9343
S11309E0EF93FF938091C6000E94A904FF91EF91B9
S11309F0BF91AF919F918F917F916F915F914F9133
S1130A003F912F910F900FBE0F901F9018951F923A
S1130A100F920FB60F9211240F900FBE0F901F90DC
S1130A201895CF93DF93CDB7DEB76E970FB6F894D2
S1130A30DEBF0FBECDBF789488E090E00E949A0498
S1130A402FEF83ED90E3215080409040E1F700C008
S1130A50000088E60E94A90485E60E94A9048CE6A9
S1130A600E94A9048CE60E94A9048FE60E94A904AE
S1130A7087E70E94A9048AE00E94A904EFEFF3ED3E
S1130A8020E3E150F0402040E1F700C00000CE0137
S1130A9001960E94550081111BC0AE014F5F5F4F4C
S1130AA0BE01695E7F4F81E00E940C04811110C079
S1130AB06F89788D898D9A8D0E94F205162F84E7AF
S1130AC00E94A904812F0E94B00483E40E94A90417
S1130AD082E20E94A9048E010F5F1F4F08C0F80133
S1130AE081918F010E94B0048EE20E94A904CE017C
S1130AF047960817190798F382E20E94A904FFCFCA
S1130B000E9494050C9475060E946E0658F00E948B
S1130B10670640F029F45F3F29F00C945E065111FA
S1130B200C94A9060C9464060E94860668F3992323
S1130B30B1F3552391F3951B550BBB27AA276217D5
S1130B407307840738F09F5F5F4F220F331F441FE2
S1130B50AA1FA9F335D00E2E3AF0E0E832D0915016
S1130B605040E695001CCAF72BD0FE2F29D0660F03
S1130B70771F881FBB1F261737074807AB07B0E846
S1130B8009F0BB0B802DBF01FF2793585F4F3AF04C
S1130B909E3F510578F00C945E060C94A9065F3FC5
S1130BA0E4F3983ED4F3869577956795B795F795D2
S1130BB09F5FC9F7880F911D9695879597F90895BA
S1130BC0E1E0660F771F881FBB1F62177307840756
S1130BD0BA0720F0621B730B840BBA0BEE1F88F765
S1130BE0E09508950E948E0688F09F5798F0B92FDB
S1130BF09927B751B0F0E1F0660F771F881F991F4E
S1130C001AF0BA95C9F714C0B13091F00E94A80641
S1130C10B1E008950C94A806672F782F8827B85F51
S1130C2039F0B93FCCF3869577956795B395D9F7A5
S1130C303EF490958095709561957F4F8F4F9F4FAF
S1130C400895E89409C097FB3EF4909580957095BB
S1130C5061957F4F8F4F9F4F9923A9F0F92F96E904
S1130C60BB279395F695879577956795B795F11179
S1130C70F8CFFAF4BB0F11F460FF1BC06F5F7F4F16
S1130C808F4F9F4F16C0882311F096E911C0772328
S1130C9021F09EE8872F762F05C0662371F096E831
S1130CA0862F70E060E02AF09A95660F771F881F00
S1130CB0DAF7880F9695879597F9089597F99F67BE
S1130CC080E870E060E008959FEF80EC08950024D0
S1130CD00A941616170618060906089500240A949D
S1130CE012161306140605060895092E0394000C23
S1130CF011F4882352F0BB0F40F4BF2B11F460FFB2
S1130D0004C06F5F7F4F8F4F9F4F089557FD9058DA
S1130D10440F551F59F05F3F71F04795880F97FBBB
S1130D20991F61F09F3F79F0879508951216130675
S1130D301406551FF2CF4695F1DF08C016161706A4
S1130D401806991FF1CF86957105610508940895D9
S1130D50E894BB2766277727CB0197F90895DB0131
S1130D608F939F930E941507BF91AF91A29F800D0F
S1130D70911DA39F900DB29F900D11240895A1E29F
S1130D801A2EAA1BBB1BFD010DC0AA1FBB1FEE1F01
S1130D90FF1FA217B307E407F50720F0A21BB30B4C
S1130DA0E40BF50B661F771F881F991F1A9469F7C8
S1130DB060957095809590959B01AC01BD01CF0124
S1130DC00895052E97FB1EF400940E94F80657FD23
S1130DD007D00E94BF0607FC03D04EF40C94F8061B
S1130DE050954095309521953F4F4F4F5F4F089553
S1130DF090958095709561957F4F8F4F9F4F089583
S1130E00EE0FFF1F0590F491E02D0994A29FB0010D
S1130E10B39FC001A39F700D811D1124911DB29F2A
S1130E20700D811D1124911D08950E940607A59F30
S1130E30900DB49F900DA49F800D911D11240895D1
S1130E40B7FF0C9415070E941507821B930B089596
S1070E50F894FFCF40
S9030000FC
