:100000000C9434000C9446000C9446000C9446006A
:100010000C9446000C9446000C9446000C94460048
:100020000C9446000C9446000C9446000C94480036
:100030000C9446000C9446000C9446000C94460028
:100040000C9446000C9446000C9446000C94460018
:100050000C9446000C9446000C9446000C94460008
:100060000C9446000C94460011241FBECFEFD8E03C
:10007000DEBFCDBF21E0A0E0B1E001C01D92A13004
:10008000B207E1F70E945C000C94F2000C940000AF
:100090001F920F920FB60F9211248F939F939091FE
:1000A000000181E08927809300019F918F910F903B
:1000B0000FBE0F901F901895CF93DF93CDB7DEB78B
:1000C0002B970FB6F894DEBF0FBECDBF81E08B87B4
:1000D00084E090E09A8389838B8590E003969595E0
:1000E000879595958795880F880F8A878B8583706C
:1000F00009F464C08B858C5F8C7F89878B858D5FCD
:100100008370888781E08F8382E08E8385E08D8392
:100110000AB110E08E8190E00E94E0008C839E8105
:10012000892F8F7009F445C081E043E032E020E080
:10013000592F537011F4842F232F90FD38C0911143
:1001400001C088E08B83D801ED91FC910190F08192
:10015000E02DC8010995D801ED91FC910280F38151
:10016000E02DC80109957894809181008860809382
:10017000810080916F00826080936F008CE3809398
:10018000890082E980938800809181008460809357
:1001900081008FEF8AB99FEF80910001882329F0B9
:1001A0009BB9809100018111FBCF1BB8F5CF822F45
:1001B000C9CF85E047E036E024E0BACF8B859DCFFC
:1001C0000E94E4008A950895AA2781110C94EC00FE
:1001D000A8E0892BD9F70895A3958695E8F78A2F8B
:0801E00099270895F894FFCF60
:00000001FF
