S01700004763634170706C69636174696F6E322E737265635A
S11300000C943E000C9453000C9453000C94530035
S11300100C9453000C9453000C9453000C94530010
S11300200C9453000C9453000C9453000C94530000
S11300300C9453000C9453000C9453000C945300F0
S11300400C9453000C9453000C9453000C945300E0
S11300500C9453000C9453000C9453000C945300D0
S11300600C9453000C9453000C9453000C945300C0
S11300700C9453000C9453000C94530011241FBE91
S1130080CFEFD8E0DEBFCDBF11E0A0E0B1E0E8E201
S1130090F1E002C005900D92A030B107D9F70E949B
S11300A055000C9492000C9400008FEF8AB98FE0F5
S11300B084B940E09DEC499F312D1124232F2695CE
S11300C026952695822F880F282F220F220F820F24
S11300D0242F281B369536953695399F912D11245A
S11300E0969596959695990F892F880F880F980F56
S11300F0391B932F39E2439F312D112432953F70E0
S113010050E1959FC0011124822B8BB935B98FEF33
S113011094E32CE0815090402040E1F700C00000BF
S10B01204F5FC8CFF894FFCF34
S9030000FC
