S00C0000636F726F2E7372656365
S11300000C9434000C9451000C9451000C94510045
S11300100C9451000C9451000C9451000C94510018
S11300200C9451000C9451000C9451000C94510008
S11300300C9451000C9451000C9451000C945100F8
S11300400C9419060C9451000C94E1040C94510086
S11300500C9416050C9451000C9451000C9451000E
S11300600C9451000C94510011241FBECFEFD8E022
S1130070DEBFCDBF11E0A0E0B1E0E6E8F7E402C0E6
S113008005900D92A435B107D9F722E0A4E5B1E0BB
S113009001C01D92AD31B207E1F70E94C10F0C946B
S11300A087230C940000CF93DF9300D0CDB7DEB745
S11300B09A83898389819A81FC01908181E09923C3
S11300C009F080E0882F90E00F900F90DF91CF919E
S11300D00895CF93DF9300D0CDB7DEB79A83898399
S11300E089819A8121E0FC01208300000F900F9008
S11300F0DF91CF910895CF93DF9300D0CDB7DEB7D2
S11301009A83898389819A81FC011182108200007B
S11301100F900F90DF91CF910895CF93DF9300D08C
S1130120CDB7DEB79A83898389819A81FC01808166
S11301309181FC0120813181F901099500000F9022
S11301400F90DF91CF910895CF93DF9300D0CDB777
S1130150DEB79A83898381E00F900F90DF91CF916E
S11301600895CF93DF9300D000D0CDB7DEB79A8344
S113017089837C836B8300000F900F900F900F9006
S1130180DF91CF910895CF93DF9300D0CDB7DEB741
S11301909A83898300000F900F90DF91CF91089587
S11301A0CF93DF9300D0CDB7DEB79A83898389815B
S11301B09A810E944B220F900F90DF91CF91089566
S11301C0CF93DF9300D0CDB7DEB79A83898389813B
S11301D09A810E94E12200000F900F90DF91CF914D
S11301E00895CF93DF9300D0CDB7DEB79A83898388
S11301F00000822F0F900F90DF91CF910895CF933D
S1130200DF9300D0CDB7DEB79A8389830000822FB5
S11302100F900F90DF91CF910895CF93DF9300D08B
S1130220CDB7DEB79A83898389819A81FC011182D3
S113023000000F900F90DF91CF910895CF93DF933B
S113024000D00F92CDB7DEB79B838A838FE590E011
S1130250FC0180818983F8948A819B812981FC0136
S113026020838A819B81FC018181882311F00E9473
S1130270A60F8A819B8121E0FC01218300000F905D
S11302800F900F90DF91CF910895CF93DF9300D01B
S1130290CDB7DEB79A83898389819A81FC019181E4
S11302A081E08927882311F00E94B20F89819A8105
S11302B0FC0111828FE590E029813A81F9012081C6
S11302C0FC01208300000F900F90DF91CF910895DF
S11302D0CF93DF9300D0CDB7DEB79A83898389812A
S11302E09A810E940110789400000F900F90DF9182
S11302F0CF910895CF93DF93CDB7DEB780EA91E035
S11303000E94530021E0009709F420E0222341F0E9
S113031088E591E00E94680180EA91E00E9469000A
S113032088E591E0DF91CF910895CF93DF93CDB726
S1130330DEB70E947A010E941F108FEF9FEFDF91BA
S1130340CF910895CF93DF9300D0CDB7DEB79A83D2
S1130350898300000F900F90DF91CF910895CF9380
S1130360DF9300D00F92CDB7DEB79A8389836B8376
S113037080EC90E0FC018081882F90E080729927C6
S113038021E0009709F420E0222339F086EC90E084
S11303902B81FC01208381E001C080E00F900F904D
S11303A00F90DF91CF910895CF93DF9300D00F92F8
S11303B0CDB7DEB79A8389836B8386EC90E02B817B
S11303C0FC01208300000F900F900F90DF91CF91DC
S11303D00895CF93DF9300D000D0CDB7DEB79A83D2
S11303E089837C836B8381EC90E028E1FC0120838A
S11303F01CC0000080EC90E0FC018081882F90E01C
S11304008072992721E0009709F020E0222391F7D8
S113041086EC90E02B813C81F9012081FC01208352
S11304208B819C8101969C838B838B819C81FC01B5
S113043080818823F1F6000000000F900F900F9048
S11304400F90DF91CF9108950F931F93CF93DF9374
S1130450CDB7DEB767970FB6F894DEBF0FBECDBF3A
S11304609F838E83488759876A877B870C871D877C
S11304702E873F87198288859985AA85BB85880F31
S1130480991FAA1FBB1F880F991FAA1FBB1F880F84
S1130490991FAA1FBB1F880F991FAA1FBB1F8C017E
S11304A09D018C859D85AE85BF85888B998BAA8B94
S11304B0BB8B688979898A899B89A90198010E94E3
S11304C01722DA01C9010197A109B1098A839B8323
S11304D0AC83BD838A819B81AC81BD81880F991FC8
S11304E0AA1FBB1F8F3FEFEF9E07A105B10509F0BF
S11304F068F588859985AA85BB85880F991FAA1FE9
S1130500BB1F880F991FAA1FBB1F880F991FAA1F03
S1130510BB1F8C019D018C859D85AE85BF858C8B11
S11305209D8BAE8BBF8B6C897D898E899F89A90138
S113053098010E941722DA01C9010197A109B109A2
S11305408A839B83AC83BD8381E089838A819B8179
S1130550AC81BD81892F9A2FAB2FBB2725EC30E0CE
S1130560D9018C9384EC90E02A81FC012083898159
S1130570882349F080EC90E0DC012C9180EC90E041
S11305802260FC01208381EC90E028E1DC012C93C3
S113059081EC90E0FC01208181EC90E0206CDC0196
S11305A02C9382EC90E02EE0FC01208300006796FF
S11305B00FB6F894DEBF0FBECDBFDF91CF911F9170
S11305C00F910895CF93DF93CDB7DEB789EA91E019
S11305D00E94530021E0009709F420E0222341F017
S11305E088EA91E00E94A20189EA91E00E946900F0
S11305F088EA91E0DF91CF910895EF92FF920F93F3
S11306001F93CF93DF9300D0CDB7DEB79A8389834E
S113061009811A810E947A01BC01C8010E946110FB
S113062089819A818C01025D1F4F0E94E2027C0144
S11306300E947A01A701BC01C8010E948C1020E02D
S113064034E244EF50E060E875E280E090E00E941C
S1130650330300000F900F90DF91CF911F910F9102
S1130660FF90EF9008950F931F93CF93DF93CDB72F
S1130670DEB728970FB6F894DEBF0FBECDBF6983EF
S11306807A838B839C832D833E834F8358870E9478
S1130690E202FC014D815E816F81788589819A81B6
S11306A0AB81BC818A019B01AC01BD01CF010E94D9
S11306B02402000028960FB6F894DEBF0FBECDBF0B
S11306C0DF91CF911F910F910895CF93DF93CDB711
S11306D0DEB78BEE91E00E94530021E0009709F40D
S11306E020E0222341F081EB91E00E94FD028BEE99
S11306F091E00E94690081EB91E0DF91CF91089530
S1130700CF93DF93CDB7DEB728970FB6F894DEBF4B
S11307100FBECDBF0E9465030E94BB1069837A831C
S11307208B839C8389819A81AB81BC818D839E83D9
S1130730AF83B8876D817E818F81988528960FB6A7
S1130740F894DEBF0FBECDBFDF91CF9108950F9314
S1130750CF93DF9300D000D000D0CDB7DEB79A831B
S113076089837C836B834D832E830E946503BC0144
S113077089819A814B815C810D812E810E94E310D5
S1130780000089819A810F900F900F900F900F9025
S11307900F90DF91CF910F910895CF93DF93CDB751
S11307A0DEB729970FB6F894DEBF0FBECDBF89839D
S11307B00E9465038E9669810E9411116A837B836E
S11307C08C839D838A819B81AC81BD818E839F8331
S11307D0A887B9876E817F818885998529960FB608
S11307E0F894DEBF0FBECDBFDF91CF9108958F92F5
S11307F09F92AF92BF92CF92DF92EF92FF920F93AC
S11308001F93CF93DF93CDB7DEB761970FB6F894FC
S1130810DEBF0FBECDBF98878F8369870E946503B3
S11308208E962F8138854985B9010E943B11822E0D
S1130830932EA42EB52EC62ED72EE82EF92E082DD3
S1130840192D2A2D3B2D4C2D5D2D6E2D7F2D0983C9
S11308501A832B833C834D835E8350E0598140E0AF
S11308604A8130E03B8120E02C8190E09D8180E052
S11308708E815A874B873C872D879E878F878A84F2
S11308809B84AC84BD84CE84DF84E888F988282DD9
S1130890392D4A2D5B2D6C2D7D2D8E2D9F2D61962E
S11308A00FB6F894DEBF0FBECDBFDF91CF911F917D
S11308B00F91FF90EF90DF90CF90BF90AF909F90FB
S11308C08F9008958F929F92AF92BF92CF92DF92B2
S11308D0EF92FF920F931F93CF93DF93CDB7DEB7C1
S11308E060970FB6F894DEBF0FBECDBF98878F8395
S11308F00E9465038E962F813885B9010E94991153
S1130900822E932EA42EB52EC62ED72EE82EF92E87
S1130910082D192D2A2D3B2D4C2D5D2D6E2D7F2D4F
S113092009831A832B833C834D835E8350E0598172
S113093040E04A8130E03B8120E02C8190E09D81C1
S113094080E08E8159874A873B872C879D878E87D5
S113095089849A84AB84BC84CD84DE84EF84F88853
S1130960282D392D4A2D5B2D6C2D7D2D8E2D9F2DFF
S113097060960FB6F894DEBF0FBECDBFDF91CF9166
S11309801F910F91FF90EF90DF90CF90BF90AF90A9
S11309909F908F900895CF93DF9300D0CDB7DEB7AB
S11309A09A8389830E94E2029C0189819A81BC0115
S11309B0C9010E94E90100000F900F90DF91CF91CF
S11309C008951F920F920FB60F9211242F933F9305
S11309D04F935F936F937F938F939F93AF93BF9343
S11309E0EF93FF93CF93DF930F92CDB7DEB786ECEF
S11309F090E0FC01808189830E94650369810E94E3
S1130A00041200000F90DF91CF91FF91EF91BF91FD
S1130A10AF919F918F917F916F915F914F913F9192
S1130A202F910F900FBE0F901F9018951F920F9249
S1130A300FB60F9211242F933F934F935F936F93AD
S1130A407F938F939F93AF93BF93EF93FF93CF9332
S1130A50DF93CDB7DEB70E9465038E960E945113D3
S1130A600000DF91CF91FF91EF91BF91AF919F91E2
S1130A708F917F916F915F914F913F912F910F9043
S1130A800FBE0F901F901895CF93DF9300D0CDB772
S1130A90DEB79A83898300000F900F90DF91CF9186
S1130AA00895CF93DF93CDB7DEB784EF91E00E9432
S1130AB0530021E0009709F420E0222341F083EF62
S1130AC091E00E94440584EF91E00E94690083EF65
S1130AD091E0DF91CF910895CF93DF930F92CDB73B
S1130AE0DEB78983898121E0280F85E490E02770AF
S1130AF0FC01208384E490E023E0FC0120838EE663
S1130B0090E0FC0120818EE690E02160FC012083CE
S1130B1086E490E0FC01108200000F90DF91CF91F9
S1130B200895EF92FF920F931F93CF93DF9300D01A
S1130B30CDB7DEB79A838983E980FA800E947A016F
S1130B40012F20E030E0A901BC01C7010E94DE139F
S1130B5089819A8140E054E264EF70E00E94BA0512
S1130B6000000F900F90DF91CF911F910F91FF9094
S1130B70EF9008950F931F93CF93DF93CDB7DEB714
S1130B802E970FB6F894DEBF0FBECDBF9E838D8324
S1130B904F83588769877A8784E00E946C050E9496
S1130BA051058F819885A985BA85AC01BD01802F37
S1130BB00E9414146B877C878D879E878B859C8508
S1130BC0AD85BE8589839A83AB83BC83ED81FE8129
S1130BD089819A81AB81BC81212FAC01BD01CF01F8
S1130BE00E94871400002E960FB6F894DEBF0FBE45
S1130BF0CDBFDF91CF911F910F910895CF93DF93D4
S1130C00CDB7DEB784E192E00E94530021E0009763
S1130C1009F420E0222341F08CEF91E00E94910539
S1130C2084E192E00E9469008CEF91E0DF91CF9122
S1130C3008951F920F920FB60F9211242F933F9392
S1130C404F935F936F937F938F939F93AF93BF93D0
S1130C50EF93FF93CF93DF93CDB7DEB70E94FE05EA
S1130C600E94AE140000DF91CF91FF91EF91BF91EC
S1130C70AF919F918F917F916F915F914F913F9130
S1130C802F910F900FBE0F901F9018951F93CF9325
S1130C90DF9300D000D0CDB7DEB71A8219821B8251
S1130CA01C8286E690E00E94D0009A838983898121
S1130CB09A8121E0FC01218789819A8122E836E02A
S1130CC0FC013183208389819A812CE43BE0FC017F
S1130CD03383228389819A8104960E94F100898159
S1130CE09A81FC011086178289819A810E9482066A
S1130CF00000812F0F900F900F900F90DF91CF91F4
S1130D001F9108956F927F928F929F92AF92BF929C
S1130D10CF92DF92EF92FF920F931F93CF93DF93C3
S1130D20CDB7DEB7E0970FB6F894DEBF0FBECDBFE8
S1130D309C838B838B819C81DC0117968D919C9184
S1130D401897817099270097C1F08B819C81FC01D1
S1130D5087819085CC01A0E0B0E00197A109B10999
S1130D608C319105A105B10509F028F487579C4DF4
S1130D70FC010C9439220E9482238B819C81DC012A
S1130D8017968D919C91CC01A0E0B0E08C31910537
S1130D90A105B10509F000F58A559C4DFC010C94A0
S1130DA039220B811C818B819C810E94A717D80159
S1130DB016969C938E9315978B819C8104960E9422
S1130DC0FF008B819C810A960E94A400982F81E0E9
S1130DD08927882319F41AC00E9482238B819C815D
S1130DE022E030E0FC01308727838B819C819C01C9
S1130DF0265F3F4F8B819C81DC0115968D919C91E0
S1130E00BC01C9010E94B10031C421C48B819C8101
S1130E100A960E94C30020E034E244EF50E060E808
S1130E2075E280E090E00E9433032B813C8182E1F3
S1130E3095E1A3E0B0E0F90183879487A587B6879D
S1130E408B819C812AE0E3E1F1E0DC011F960190B3
S1130E500D922A95E1F78B819C81AC01415F5F4F34
S1130E608B819C81DC011B960D911D912D913C91F0
S1130E701E970D831E832F8338872AE06D817E8120
S1130E808F8198850E9406158B819C810F966B80BB
S1130E907C806AE00E94F703822E932EA42EB52E46
S1130EA0C62ED72EE82EF92E082D192D2A2D3B2DCE
S1130EB04C2D5D2D6E2D7F2DF301018FD3015A969C
S1130EC01C93F301238FD3015C963C93F301458F6C
S1130ED0D3015E965C938B819C8149960E94B615E2
S1130EE0982F81E089278823C1F08B819C8124E09D
S1130EF030E0FC01308727838B819C819C01275E35
S1130F003F4F8B819C81DC0115968D919C91BC0196
S1130F10C9010E94C615AAC39AC38B819C814996B4
S1130F200E940E160E94FE05FC0182819381A48119
S1130F30B5812B813C81F901878F90A3A1A3B2A332
S1130F408B819C81AC01415F5F4F8B819C81DC0173
S1130F505F960D911D912D913C91929709871A8767
S1130F602B873C8724E169857A858B859C850E9443
S1130F700615282F8B819C81FC0123A38B819C81E6
S1130F80DC0193968C919397282F2A3011F008F066
S1130F902AE08B819C810F966B807C80622F0E945B
S1130FA0F703822E932EA42EB52EC62ED72EE82E0E
S1130FB0F92E082D192D2A2D3B2D4C2D5D2D6E2D2E
S1130FC07F2DF30103A7D3019C961C93F30125A75E
S1130FD0D3019E963C93F30147A7D301D0965C932B
S1130FE08B819C818B960E94B615982F81E089276E
S1130FF08823C1F08B819C8126E030E0FC0130879E
S113100027838B819C819C01255D3F4F8B819C8133
S1131010DC0115968D919C91BC01C9010E94C615F5
S113102025C315C38B819C818B960E940E160B8160
S11310301C818AE00E94CD03698F7A8F8B8F9C8FED
S1131040298D3A8D4B8D5C8DD801D1962D933D938E
S11310504D935C93D4978B819C81C1960E942916F1
S1131060982F81E089278823C1F08B819C8128E017
S113107030E0FC01308727838B819C819C012F5CAD
S11310803F4F8B819C81DC0115968D919C91BC0115
S1131090C9010E943916EAC2DAC28B819C81C196C9
S11310A00E9473160E94FE05DC0154960D911D9159
S11310B02D913C9157970D871E872F87388B6D850F
S11310C07E858F8598890E94B420698B7A8B8B8B5F
S11310D09C8B8B819C8109891A892B893C89DC0131
S11310E094960D931D932D933C9397978B819C819C
S11310F0AC01415F5F4F8B819C81DC0194960D9123
S11311001D912D913C9197970D8B1E8B2F8B388FB2
S113111024E16D897E898F89988D0E940615282F78
S11311208B819C81FC0123A38B819C81DC019396A0
S11311308C919397282F2A3011F008F02AE08B81A4
S11311409C810F966B807C80622F0E94F703822E15
S1131150932EA42EB52EC62ED72EE82EF92E082DAA
S1131160192D2A2D3B2D4C2D5D2D6E2D7F2DF30138
S113117005ABD301D6961C93F30127ABD301D896C4
S11311803C93F30141AFD301DA965C938B819C814C
S1131190C5960E94B615982F81E089278823C1F04F
S11311A08B819C812AE030E0FC01308727838B818E
S11311B09C819C012B5C3F4F8B819C81DC011596AB
S11311C08D919C91BC01C9010E94C6154FC23FC2BA
S11311D08B819C81C5960E940E160B811C818AE02E
S11311E00E94CD036D8F7E8F8F8F98A32D8D3E8DA2
S11311F04F8D58A1D801DB962D933D934D935C936D
S1131200DE978B819C81CB960E942916982F81E0D2
S113121089278823C1F08B819C812CE030E0FC017C
S1131220308727838B819C819C01255C3F4F8B8178
S11312309C81DC0115968D919C91BC01C9010E9491
S1131240391614C204C28B819C81CB960E947316FA
S11312508B819C818C01015C1F4F0E94800369A3D8
S11312607AA38BA39CA329A13AA14BA15CA1D80189
S11312702D933D934D935C9313978B819C81CF96D3
S11312800E948E16982F81E089278823C1F08B81D4
S11312909C812EE030E0FC01308727838B819C8188
S11312A09C01215C3F4F8B819C81DC0115968D91C3
S11312B09C91BC01C9010E949E16D8C1C8C18B81F2
S11312C09C81CF960E94CD16282F8B819C81FC0196
S11312D020A78B819C818C010D5B1F4F0E94800392
S11312E06DA37EA38FA398A72DA13EA14FA158A5BE
S11312F0D8012D933D934D935C9313978B819C81DF
S11313008D5B9F4F0E948E16982F81E0892788233A
S1131310C1F08B819C8120E130E0FC013087278380
S11313208B819C819C012D5B3F4F8B819C81DC01D7
S113133015968D919C91BC01C9010E949E1696C17F
S113134086C18B819C818D5B9F4F0E94CD16282F77
S11313508B819C81FC0121A78B819C81DC01989667
S11313602C918B819C818C01095B1F4F822F0E94E1
S1131370CD0369A77AA78BA79CA729A53AA54BA556
S11313805CA5D8012D933D934D935C9313978B816A
S11313909C81895B9F4F0E942916982F81E08927A1
S11313A08823C1F08B819C8122E130E0FC013087ED
S11313B027838B819C819C01295B3F4F8B819C817E
S11313C0DC0115968D919C91BC01C9010E943916CE
S11313D04DC13DC18B819C81895B9F4F0E947316D7
S11313E08B819C81FC0121A58B819C818C01055BF7
S11313F01F4F822F0E94CD036DA77EA78FA798ABA6
S11314002DA53EA54FA558A9D8012D933D934D93E5
S11314105C9313978B819C81855B9F4F0E94291657
S1131420982F81E089278823C1F08B819C8124E156
S113143030E0FC01308727838B819C819C01255BF4
S11314403F4F8B819C81DC0115968D919C91BC0151
S1131450C9010E9439160AC1FAC08B819C81855B3F
S11314609F4F0E9473168B819C81BC01615F7F4FEB
S11314708B819C81815B9F4F2AE04AE00E94A703F5
S11314808B819C81815B9F4F0E940B17982F81E079
S113149089278823C1F08B819C8126E130E0FC01FF
S11314A0308727838B819C819C01215B3F4F8B81FB
S11314B09C81DC0115968D919C91BC01C9010E940F
S11314C01B17D4C0C4C08B819C81815B9F4F0E9439
S11314D07517282F8B819C81FC0122A78B819C810D
S11314E0DC019A968C919A978A3009F053C08B81CB
S11314F09C813C01B9E56B0E711C86E091E00E9471
S11315006204822E932EA42EB52EC62ED72EE82E3C
S1131510F92E082D192D2A2D3B2D4C2D5D2D6E2DC8
S11315207F2DF3010083D30111961C93F3012283D1
S1131530D30113963C93F3014483D30115965C9332
S11315408B819C81875A9F4F0E94B615982F81E00A
S113155089278823C1F08B819C8128E130E0FC013C
S1131560308727838B819C819C01275A3F4F8B8135
S11315709C81DC0115968D919C91BC01C9010E944E
S1131580C61574C064C08B819C81875A9F4F0E948A
S11315900E16C8CC8B819C81FC0142A58B819C8159
S11315A09C01215F3F4F8B819C813C01FFE56F0EC5
S11315B0711C642FC9010E94F703822E932EA42E5E
S11315C0B52EC62ED72EE82EF92E082D192D2A2D2C
S11315D03B2D4C2D5D2D6E2D7F2DD3010C93F301EE
S11315E01183D30112962C93F3013383D301149600
S11315F04C93F30155838B819C81815A9F4F0E94A8
S1131600B615982F81E089278823C9F08B819C81A6
S11316102AE130E0DC0118963C932E9317978B81D6
S11316209C819C01215A3F4F8B819C81FC018581C7
S11316309681BC01C9010E94C61518C008C08B81DF
S11316409C81815A9F4F0E940E166CCC00008B81A6
S11316509C81DC0119968C911997882F90E0009752
S113166029F08B819C810E94E00000C00000E0967C
S11316700FB6F894DEBF0FBECDBFDF91CF911F919F
S11316800F91FF90EF90DF90CF90BF90AF909F901D
S11316908F907F906F900895CF93DF9300D0CDB754
S11316A0DEB79A83898389819A81FC018781908539
S11316B09C01216089819A81FC013087278389817B
S11316C09A810E9482060F900F90DF91CF91089526
S11316D08F929F92AF92BF92CF92DF92EF92FF923E
S11316E00F931F93CF93DF93CDB7DEB768970FB6F1
S11316F0F894DEBF0FBECDBF98878F8309871A8702
S11317002B873C874D875E876F87788B2F81388541
S113171089859A85AB85BC85AC01BD01C9010E9450
S11317200518822E932EA42EB52EC62ED72EE82E63
S1131730F92E082D192D2A2D3B2D4C2D5D2D6E2DA6
S11317407F2D09831A832B833C834D835E8350E072
S1131750598140E04A8130E03B8120E02C8190E0D7
S11317609D8180E08E81598B4A8B3B8B2C8B9D8B8A
S11317708E8B89889A88AB88BC88CD88DE88EF8870
S1131780F88C282D392D4A2D5B2D6C2D7D2D8E2D19
S11317909F2D68960FB6F894DEBF0FBECDBFDF91C4
S11317A0CF911F910F91FF90EF90DF90CF90BF905A
S11317B0AF909F908F9008958F929F92AF92BF9217
S11317C0CF92DF92EF92FF920F931F93CF93DF9309
S11317D0CDB7DEB763970FB6F894DEBF0FBECDBFAB
S11317E098878F837A8769874B878F819885089636
S11317F029853A85452FB9010E94BE17822E932E62
S1131800A42EB52EC62ED72EE82EF92E8F819885BC
S1131810082D192D2A2D3B2D4C2D5D2D6E2D7F2D40
S11318200E94680B822E932EA42EB52EC62ED72E80
S1131830E82EF92E082D192D2A2D3B2D4C2D5D2D2A
S11318406E2D7F2D09831A832B833C834D835E8306
S113185050E0598140E04A8130E03B8120E02C8116
S113186090E09D8180E08E815C874D873E872F8745
S1131870988B898B8C849D84AE84BF84C888D988D6
S1131880EA88FB88282D392D4A2D5B2D6C2D7D2D62
S11318908E2D9F2D63960FB6F894DEBF0FBECDBF7D
S11318A0DF91CF911F910F91FF90EF90DF90CF9038
S11318B0BF90AF909F908F9008951F93CF93DF9325
S11318C0CDB7DEB728970FB6F894DEBF0FBECDBFF5
S11318D09E838D8378876F831A8219821B821C8270
S11318E08EE190E00E94D0009A83898389819A8155
S11318F021E0FC01258789819A8121EB3CE0FC01F0
S11319003183208389819A812DE23EE0FC01338377
S113191022832D813E8189819A81FC01308727832E
S11319202F81388589819A81FC01328721878981B9
S11319309A8104960E94F10089819A81FC0114869F
S1131940138689819A810E94B10C0000812F289608
S11319500FB6F894DEBF0FBECDBFDF91CF911F91BC
S113196008954F925F926F927F928F929F92AF925F
S1131970BF92CF92DF92EF92FF920F931F93CF9378
S1131980DF9300D000D0CDB7DEB79C838B838B81EF
S11319909C81FC018385948581709927009731F19E
S11319A08B819C81FC018385948589309105E1F0CC
S11319B08930910509F0C0F48730910509F422C1FA
S11319C08730910509F080F48530910509F4C1C090
S11319D08530910509F040F48130910509F419C16D
S11319E08330910509F455C00E9482238B819C8128
S11319F0FC01838594858830910599F1883091059F
S1131A0009F078F58630910509F4FDC0863091051A
S1131A1009F038F58430910509F49CC084309105AF
S1131A2009F0F8F4009721F08230910599F119C07A
S1131A300B811C818B819C810E94A717F8019683DE
S1131A4085838B819C8104960E94FF008B819C81FD
S1131A500E960E94A400982F81E08927882319F408
S1131A6019C00E9482238B819C8122E030E0FC011A
S1131A70348723878B819C819C01225F3F4F8B811C
S1131A809C81FC0185819681BC01C9010E94B10041
S1131A90CEC0C0C08B819C810E960E94C3000E9460
S1131AA0FE059C018B819C81FC01308B278785E29C
S1131AB090E0FC0110828B819C81FC0187859089D8
S1131AC09C018B819C81FC01878190856B807C804B
S1131AD0442DBC01C9010E94DC0B822E932EA42E3E
S1131AE0B52EC62ED72EE82EF92E082D192D2A2D07
S1131AF03B2D4C2D5D2D6E2D7F2DF301018BF301BC
S1131B00128BF301238BF301348BF301458BF30127
S1131B10568B8B819C8141960E947B18982F81E083
S1131B2089278823B9F08B819C8124E030E0FC0173
S1131B30348723878B819C819C012F5E3F4F8B814F
S1131B409C81FC0185819681BC01C9010E94951884
S1131B506EC060C08B819C8141960E94C21885E250
S1131B6090E02FEFFC0120838B819C81FC01878511
S1131B7090899C018B819C81FC01878190856B807D
S1131B807C80452DBC01C9010E94DC0B822E932E62
S1131B90A42EB52EC62ED72EE82EF92E082D192DDB
S1131BA02A2D3B2D4C2D5D2D6E2D7F2DF301078BA2
S1131BB0F301108FF301218FF301328FF301438F6F
S1131BC0F301548F8B819C8147960E947B18982F38
S1131BD081E089278823B9F08B819C8126E030E05D
S1131BE0FC01348723878B819C819C01295E3F4FB4
S1131BF08B819C81FC0185819681BC01C9010E9475
S1131C00951815C007C08B819C8147960E94C21805
S1131C104ECF00008B819C81FC018585882F90E04C
S1131C20009729F08B819C810E94E00000C0000095
S1131C300F900F900F900F90DF91CF911F910F9104
S1131C40FF90EF90DF90CF90BF90AF909F908F90D8
S1131C507F906F905F904F900895CF93DF9300D063
S1131C60CDB7DEB79A83898389819A81FC01838504
S1131C7094859C01216089819A81FC0134872387A2
S1131C8089819A810E94B10C0F900F90DF91CF91BE
S1131C900895CF93DF93CDB7DEB7C454D1090FB6FF
S1131CA0F894DEBF0FBECDBF8FE590E0DC018C91D0
S1131CB08095881F8827881F882309F436C18DE101
S1131CC091E00E94CB0481E080931C022EC180E04D
S1131CD090E0A8ECB2E48F87988BA98BBA8B20E0B4
S1131CE030E04AE755E46F85788989899A890E94AA
S1131CF0AA216DA37EA38FA398A78DA19EA1AFA1B6
S1131D00B8A58B8B9C8BAD8BBE8B20E030E040E87C
S1131D105FE36B897C898D899E890E9401208823D9
S1131D202CF481E090E0988F8F8B55C020E03FEF3A
S1131D304FE757E46B897C898D899E890E94A52190
S1131D408823D9F1D4F120E030E040E251E46F85FA
S1131D50788989899A890E94AA2169A77AA78BA779
S1131D609CA789A59AA5ABA5BCA589A39AA3ABA357
S1131D70BCA369A17AA18BA19CA10E94B4206DA7E8
S1131D807EA78FA798ABADA5BEA5B88FAF8B10C0AB
S1131D9080E991E09A8F898F898D9A8D0197F1F767
S1131DA09A8F898F00008F89988D0197988F8F8BD8
S1131DB08F89988D009761F719C06B897C898D890B
S1131DC09E890E94B42069AB7AAB8BAB9CABE9A92A
S1131DD0FAA9F88FEF8B8F89988D9C8F8B8F8B8DC1
S1131DE09C8D0197F1F79C8F8B8F000085E290E02A
S1131DF0DC011C9280E090E0A8ECB2E489839A8331
S1131E00AB83BC8320E030E04AE755E469817A8102
S1131E108B819C810E94AA216DAB7EAB8FAB98AF66
S1131E208DA99EA9AFA9B8AD8D839E83AF83B887D2
S1131E3020E030E040E85FE36D817E818F8198850A
S1131E400E94012088232CF481E090E09A878987FE
S1131E505CC020E03FEF4FE757E46D817E818F81C6
S1131E6098850E94A521882309F00CF43CC020E049
S1131E7030E040E251E469817A818B819C810E9447
S1131E80AA2169AF7AAF8BAF9CAF89AD9AADABADE8
S1131E90BCAD8D8F9E8FAF8FB8A36D8D7E8D8F8DD2
S1131EA098A10E94B42021966CAF7DAF8EAF9FAFF6
S1131EB02197ADADBEADBA87A98710C080E991E086
S1131EC09C878B878B859C850197F1F79C878B87F3
S1131ED0000089859A8501979A87898789859A85DB
S1131EE0009761F71DC06D817E818F8198850E9466
S1131EF0B42025966CAF7DAF8EAF9FAF2597239608
S1131F00EEADFFAD2397FA87E98789859A859E8789
S1131F108D878D859E850197F1F79E878D870000BB
S1131F2085E290E02FEFDC012C9380911C02882342
S1131F3009F0CDCE00000000CC5BDF4F0FB6F89463
S1131F40DEBF0FBECDBFDF91CF910895CF93DF9356
S1131F50CDB7DEB786E391E00E94CB040000DF91A9
S1131F60CF910895CF93DF93CDB7DEB781E080930F
S1131F701C0281E491E00E94CB040000DF91CF9128
S1131F800895CF93DF9300D00F92CDB7DEB78AE2E6
S1131F9090E0FC01108284E290E02FEFFC012083AA
S1131FA085E290E02FEFFC01208319820CC085E2CA
S1131FB090E0FC01108285E290E02FEFFC01208389
S1131FC089818F5F89838981813089F380F30E94BD
S1131FD0460660E070E088EE93E00E945D0C0E948B
S1131FE07A018A5B9F4F29E43EE0FC013183208320
S1131FF00E94950100000F900F900F90DF91CF91F8
S11320000895CF93DF9300D0CDB7DEB79A83898349
S113201089819A810E94CF1889819A818C5B9F4F14
S11320200E940D0189819A818A5B9F4FFC01118274
S1132030108200000F900F90DF91CF910895CF93FD
S1132040DF9300D000D0CDB7DEB79C838B838B8128
S11320509C818C5B9F4F0E941E018B819C810E94FE
S1132060F2188823C9F08B819C818C5B9F4F0E945E
S113207045018B819C818A5B9F4FFC01808191810A
S1132080009729F38B819C818A5B9F4FFC0180819F
S11320909181FC010995DBCF1A8219828B819C8185
S11320A09E012F5F3F4FB9010E940A198B819C81C9
S11320B08C5B9F4F0E944501CE0101960E948D00CA
S11320C0C6CFCF93DF9300D000D0CDB7DEB79A83CD
S11320D089837C836B832B813C8189819A81B901BB
S11320E00E94711989819A810E94831989819A8138
S11320F088960E940D0189819A818A960E94AA1964
S113210089819A81FC0117A200000F900F900F9013
S11321100F90DF91CF910895CF93DF9300D000D03B
S113212000D0CDB7DEB79A8389837C836B835E83CB
S11321304D832B813C8189819A81B9010E94711957
S113214089819A812D813E81FC013183208389819B
S11321509A8102960E940D0189819A8108960E94B3
S1132160D11900000F900F900F900F900F900F90C7
S1132170DF91CF910895CF93DF93CDB7DEB72A9740
S11321800FB6F894DEBF0FBECDBF9E838D838D81C5
S11321909E81BC01CE0101960E94E61989819A8133
S11321A0AB81BC818F839887A987BA876F81788533
S11321B089859A852A960FB6F894DEBF0FBECDBFE7
S11321C0DF91CF9108950F931F93CF93DF93CDB7F2
S11321D0DEB728970FB6F894DEBF0FBECDBF9A8343
S11321E089837C836B835E834D832F8308879E0161
S11321F0285F3F4F4D815E816B817C8189819A810B
S113220089012F810E94181A89819A8128960FB614
S1132210F894DEBF0FBECDBFDF91CF911F910F9118
S11322200895CF93DF93CDB7DEB72B970FB6F8940D
S1132230DEBF0FBECDBF9E838D836F838D819E8154
S11322404F81BC01CE0101960E948C1A89819A812A
S1132250AB81BC8188879987AA87BB876885798584
S11322608A859B852B960FB6F894DEBF0FBECDBF33
S1132270DF91CF9108958F929F92AF92BF92CF92A8
S1132280DF92EF92FF92CF93DF93CDB7DEB76997DA
S11322900FB6F894DEBF0FBECDBF9E878D87788BB7
S11322A06F87498B4F8558898D859E852989BC0107
S11322B0CE0101960E94CC1A26E0CE010196FC01C3
S11322C0DE01179601900D922A95E1F750E05F81A7
S11322D040E0488530E0398520E02A8590E09B8500
S11322E080E08C855A8B4B8B3C8B2D8B9E8B8F8BFC
S11322F08A889B88AC88BD88CE88DF88E88CF98C76
S1132300282D392D4A2D5B2D6C2D7D2D8E2D9F2D45
S113231069960FB6F894DEBF0FBECDBFDF91CF91A3
S1132320FF90EF90DF90CF90BF90AF909F908F90F1
S113233008958F929F92AF92BF92CF92DF92EF92C5
S1132340FF92CF93DF93CDB7DEB769970FB6F894BA
S1132350DEBF0FBECDBF9F878E87798B688B1982B6
S113236003C089818F5F89838981882F90E02889C0
S11323703989820F931FFC018081882391F7488952
S113238059896E857F85CE01029629810E94CC1AD7
S113239086E0FE013296DE01189601900D928A9530
S11323A0E1F750E0588540E0498530E03A8520E087
S11323B02B8590E09C8580E08D855A8B4B8B3C8BE4
S11323C02D8B9E8B8F8B8A889B88AC88BD88CE880A
S11323D0DF88E88CF98C282D392D4A2D5B2D6C2D46
S11323E07D2D8E2D9F2D69960FB6F894DEBF0FBEFE
S11323F0CDBFDF91CF91FF90EF90DF90CF90BF9052
S1132400AF909F908F900895CF93DF93CDB7DEB7B1
S11324102B970FB6F894DEBF0FBECDBF9A8789877E
S11324206B8789859A858A960E94301B982F81E054
S11324308927882349F089859A859E01255F3F4F26
S1132440B9010E94401B23C189859A85FC0182A59C
S1132450882F90E08330910509F4B2C08330910550
S113246011F00CF011C18230910509F465C082307D
S1132470910511F00CF008C1009721F0813091050D
S1132480F9F002C189859A85FC0183A594A59A83F4
S1132490898389859A858A960E94821B89859A8573
S11324A09E01255F3F4FB9010E94401B0E94931B70
S11324B09C0189819A81BC01C9010E949C1BE7C0CF
S11324C089859A85FC0182A193A12B85FC01208337
S11324D089859A85FC0182A193A19C012F5F3F4FBE
S11324E089859A85FC0133A322A389859A85FC01F9
S11324F084A12FEF280F89859A85FC0124A389855F
S11325009A85FC0184A1882309F0C0C089859A8535
S1132510FC0183A594A59C838B8389859A858A96DF
S11325200E94821B0E94931B9C018B819C81BC0195
S1132530C9010E949C1BAAC089859A85FC0182A1BD
S113254093A12B85FC01208389859A85FC0184A1B4
S11325502FEF280F89859A85FC0124A389859A8504
S1132560FC0184A1882339F089859A85FC0195A111
S11325708B859817B9F489859A85FC0183A594A560
S11325809E838D8389859A858A960E94821B0E94E8
S1132590931B9C018D819E81BC01C9010E949C1BDF
S11325A0000075C089859A85FC0182A193A19C01D4
S11325B02F5F3F4F89859A85FC0133A322A367C00F
S11325C089859A85FC0182A193A12B85FC01208336
S11325D089859A85FC0182A193A19C012F5F3F4FBD
S11325E089859A85FC0133A322A389859A85FC01F8
S11325F084A12FEF280F89859A85FC0124A389855E
S11326009A85FC0184A1882331F189859A85FC018E
S113261087A1882F90E029853A85820F931F85969C
S1132620FC0190818B85981789F489859A85FC0132
S113263087A1813091F089859A85FC0187A121E0E9
S1132640280F89859A85FC0127A321C089859A854D
S1132650FC0117A21CC0000001C0000089859A85F6
S1132660FC0183A594A598878F8389859A858A968A
S11326700E94821B0E94931B9C018F819885BC0140
S1132680C9010E949C1B03C0000001C0000000009F
S11326902B960FB6F894DEBF0FBECDBFDF91CF915E
S11326A00895CF93DF9300D000D000D0CDB7DEB72C
S11326B09E838D838D819E8108960E94C51B8823ED
S11326C009F472C08D819E81FC018085882F90E081
S11326D0009721F08130910521F166C08D819E81A2
S11326E0FC01208131818D819E81FC018481682FD0
S11326F0C9010E94D4018D819E81FC01818592854E
S11327009A8389838D819E8108960E94D51B0E949D
S1132710931B9C0189819A81BC01C9010E949C1B65
S113272043C08D819E81FC01208131818D819E81F8
S1132730FC0185819681FC018081682FC9010E947A
S1132740D4018D819E81FC0187812FEF280F8D811B
S11327509E81FC0127838D819E81FC0187818823D2
S1132760A9F48D819E81FC01818592859C838B8354
S11327708D819E8108960E94D51B0E94931B9C010B
S11327808B819C81BC01C9010E949C1B8D819E810F
S1132790FC01858196819C012F5F3F4F8D819E8135
S11327A0FC0136832583000000000F900F900F90EA
S11327B00F900F900F90DF91CF9108950F931F9377
S11327C0CF93DF93CDB7DEB729970FB6F894DEBF6A
S11327D00FBECDBF9A8389837C836B832D833E8315
S11327E04F835887098789819A812B813C81B9015C
S11327F00E94E61B89819A81FC0138968D819E8115
S1132800AF81B885212FAC01BD01CF010E941D1CF1
S1132810000029960FB6F894DEBF0FBECDBFDF913E
S1132820CF911F910F910895CF93DF93CDB7DEB76A
S11328306F970FB6F894DEBF0FBECDBF8F83488766
S113284059876A877B87198280E090E0A0E8BFE31C
S11328508A839B83AC83BD8385E490E0FC01808103
S1132860877081508E838E81882F90E0825B9E4F8B
S1132870FC018081882F90E09C01285F3F4F81E01C
S113288090E0A0E0B0E0AC01BD0104C0440F551FCE
S1132890661F771F2A95D2F74C875D876E877F87DF
S11328A06C857D858E859F850E94E320688B798B5E
S11328B08A8B9B8B688579858A859B850E94E3201A
S11328C06C8B7D8B8E8B9F8B2C893D894E895F8988
S11328D0688979898A899B890E9406206C8F7D8FFB
S11328E08E8F9F8F8C8D9D8DAE8DBF8D888F998F90
S11328F0AA8FBB8F688D798D8A8D9B8D6F960FB64D
S1132900F894DEBF0FBECDBFDF91CF910895CF9372
S1132910DF9300D000D000D00F92CDB7DEB79A83FA
S113292089834B835C836D837E832F8389819A8122
S1132930FC0138968B819C81AD81BE81232FAC0133
S1132940BD01CF010E94541C000027960FB6F894D5
S1132950DEBF0FBECDBFDF91CF9108958F929F92BE
S1132960AF92BF92CF92DF92EF92FF92CF93DF9319
S113297000D0CDB7DEB79A83898389819A81FC011F
S11329808084FC019184FC01A284FC01B384FC01D9
S1132990C484FC01D584FC01E684FC01F784282D61
S11329A0392D4A2D5B2D6C2D7D2D8E2D9F2DA1E073
S11329B00E943F22822E932EA42EB52EC62ED72EF1
S11329C0E82EF92E89819A81FC018086FC0191868A
S11329D0FC01A286FC01B386FC01C486FC01D586F9
S11329E0FC01E686FC01F78689819A810E94911C8C
S11329F000000F900F90DF91CF91FF90EF90DF9048
S1132A00CF90BF90AF909F908F9008950F931F9396
S1132A10CF93DF93CDB7DEB7AE970FB6F894DEBF92
S1132A200FBECDBF6C8F7D8F8E8F9F8F59A348A310
S1132A302AA319828C8D9D8DAE8DBF8D0097A10523
S1132A40B10539F488A199A120E3DC012C9381E03C
S1132A5082C01A824DC08C8D9D8DAE8DBF8D8BA38F
S1132A609CA3ADA3BEA30AE010E020E030E06BA17C
S1132A707CA18DA19EA1A90198010E9417226FA398
S1132A8078A789A79AA78FA198A5A9A5BAA58C8389
S1132A909D83AE83BF838C8D9D8DAE8DBF8D8BA7A3
S1132AA09CA7ADA7BEA70AE010E020E030E06BA52C
S1132AB07CA58DA59EA5A90198010E941722DA0183
S1132AC0C9018C8F9D8FAE8FBF8F2C818A81882FF7
S1132AD090E040E3420F9E01285F3F4F820F931F17
S1132AE0DC014C938A818F5F8A8389818F5F89831C
S1132AF08C8D9D8DAE8DBF8D0097A105B10529F0FC
S1132B009A818AA1981708F4A6CF81E08B831DC00F
S1132B108981282F30E08B81882F90E0F901E81B10
S1132B20F90BCF019E01285F3F4F820F931FDC01F9
S1132B302C9188A199A1FC01208388A199A10196D7
S1132B4099A388A38B818F5F8B839B81898198173D
S1132B50F9F2F0F28981AE960FB6F894DEBF0FBE9B
S1132B60CDBFDF91CF911F910F910895CF93DF9344
S1132B7000D0CDB7DEB79A83898389819A81FC011D
S1132B8085810F900F90DF91CF910895CF93DF93BC
S1132B9000D000D000D00F92CDB7DEB79D838C83D8
S1132BA07F836E8381E089838E819F819B838A8367
S1132BB08C819D81FC018081918108969E012F5F0B
S1132BC03F4FB9010E943F1D8C819D81FC01808192
S1132BD091812C813D81F90122813381FC0136836D
S1132BE025838C819D81FC01808191812C813D8193
S1132BF0F9012481FC0127838C819D81FC01808162
S1132C00918102960E944501000027960FB6F89420
S1132C10DEBF0FBECDBFDF91CF910895CF93DF9379
S1132C2000D0CDB7DEB79A83898389819A81FC016C
S1132C308581882341F089819A81FC018081918179
S1132C4002960E94450100000F900F90DF91CF91F2
S1132C500895CF93DF9300D0CDB7DEB79A838983ED
S1132C6089819A81FC0183810F900F90DF91CF912C
S1132C700895CF93DF9300D000D000D00F92CDB74A
S1132C80DEB79D838C837F836E8319828E819F81BF
S1132C909B838A838C819D81FC018081918108962C
S1132CA09E012F5F3F4FB9010E943F1D8C819D8182
S1132CB0FC01808191812C813D81F9012281FC01FB
S1132CC024838C819D81FC018081918102960E94E4
S1132CD04501000027960FB6F894DEBF0FBECDBFA6
S1132CE0DF91CF910895CF93DF9300D0CDB7DEB7B6
S1132CF09A83898389819A81FC018381882341F0A5
S1132D0089819A81FC018081918102960E9445010A
S1132D1000000F900F90DF91CF910895CF93DF9330
S1132D2000D0CDB7DEB79A83898389819A81FC016B
S1132D3082810F900F90DF91CF910895CF93DF930D
S1132D4000D000D000D00F92CDB7DEB79D838C8326
S1132D507F836E8319828E819F819B838A838C817A
S1132D609D81FC01808191818A969E012F5F3F4F56
S1132D70B9010E94631D8C819D81FC018081918138
S1132D8088960E944501000027960FB6F894DEBF8E
S1132D900FBECDBFDF91CF910895CF93DF9300D0C5
S1132DA00F92CDB7DEB79B838A838A819B81FC0116
S1132DB08281882369F08A819B81FC0180819181D1
S1132DC088960E9445018A819B81FC0183811DC0F4
S1132DD08A819B81FC018081918188960E941E01D9
S1132DE08A819B81FC01808191819C01CE010196A5
S1132DF0BC01C9010E94871D8A819B81FC018081DD
S1132E00918188960E94450189810F900F900F90BF
S1132E10DF91CF910895CF93DF9300D0CDB7DEB784
S1132E209A83898389819A81FC0181850F900F900F
S1132E30DF91CF910895CF93DF9300D000D000D0DD
S1132E400F92CDB7DEB79D838C837F836E8382E040
S1132E5089838E819F819B838A838C819D81FC01E0
S1132E60808191818A969E012F5F3F4FB9010E9414
S1132E70631D8C819D81FC01808191812C813D8128
S1132E80F9012681FC0125A38C819D81FC018081AF
S1132E909181FC0117A28C819D81FC01808191812B
S1132EA02C813D81F90124813581FC0133A322A3C6
S1132EB08C819D81FC01808191812C813D81F9016E
S1132EC02281FC0124A38C819D81FC01808191815C
S1132ED088960E944501000027960FB6F894DEBF3D
S1132EE00FBECDBFDF91CF910895CF93DF9300D074
S1132EF0CDB7DEB79A83898389819A81FC01818564
S1132F00882369F089819A81FC0180819181889666
S1132F100E94450189819A81FC01838113C08981C2
S1132F209A81FC01238189819A81FC013281898102
S1132F309A81FC0180819181FC0184A1F32FF81B0B
S1132F408F2F820F0F900F90DF91CF910895CF9321
S1132F50DF9300D000D0CDB7DEB79C838B831A8279
S1132F6019828B819C819A83898389819A810F90AC
S1132F700F900F900F90DF91CF9108958F929F92B1
S1132F80AF92BF92CF92DF92EF92FF92CF93DF93F3
S1132F90CDB7DEB72D970FB6F894DEBF0FBECDBF09
S1132FA09A8389837C836B834D832B813C818981C4
S1132FB09A81B9010E94D01D2E833F834887598787
S1132FC06A877B878C879D878E809F80A884B9843D
S1132FD0CA84DB84EC84FD84282D392D4A2D5B2D95
S1132FE06C2D7D2D8E2D9F2D2D960FB6F894DEBF62
S1132FF00FBECDBFDF91CF91FF90EF90DF90CF90C8
S1133000BF90AF909F908F9008958F929F92AF92B0
S1133010BF92CF92DF92EF92FF92CF93DF93CDB71F
S1133020DEB76A970FB6F894DEBF0FBECDBF9E879A
S11330308D874F87588B698B7A8B8F859889A9895F
S1133040BA890097A105B10529F08F859889A989C6
S1133050BA8904C081E090E0A0E0B0E08F87988B4B
S1133060A98BBA8B2D853E858F859889A989BA89C4
S1133070AC01BD01CE0101960E94631E26E0CE0183
S11330800196FC01DE01179601900D922A95E1F755
S113309050E05F8140E0488530E0398520E02A85B2
S11330A090E09B8580E08C855B8B4C8B3D8B2E8BDD
S11330B09F8B888F8B889C88AD88BE88CF88D88C5E
S11330C0E98CFA8C282D392D4A2D5B2D6C2D7D2D04
S11330D08E2D9F2D6A960FB6F894DEBF0FBECDBF1E
S11330E0DF91CF91FF90EF90DF90CF90BF90AF90A2
S11330F09F908F900895CF93DF9300D0CDB7DEB724
S11331009A83898389819A81FC0180819181A2813A
S1133110B38121E00097A105B10509F020E0822FD9
S11331200F900F90DF91CF910895CF93DF9300D04C
S113313000D000D0CDB7DEB79A8389837C836B83BC
S113314089819A81DC0114960D90BC91A02DBE83D7
S1133150AD8389819A81FC0180819181A281B381AF
S11331606B817C819C01AD018D819E810E94911EA9
S113317000000F900F900F900F900F900F90DF9121
S1133180CF910895CF93DF9300D0CDB7DEB79A8364
S1133190898300000F900F90DF91CF910895CF9312
S11331A0DF9300D0CDB7DEB79A83898389819A8172
S11331B020E4FC01322F11923A95E9F789819A8132
S11331C0805C9F4FFC011182108289819A818E5B01
S11331D09F4FFC011182108200000F900F90DF912D
S11331E0CF910895CF93DF9300D0CDB7DEB79A8304
S11331F0898389819A818E5B9F4FFC0180819181B3
S113320021E0009709F020E0822F0F900F90DF91CA
S1133210CF910895CF93DF9300D000D0CDB7DEB720
S11332209A8389837C836B8389819A818E5B9F4F88
S1133230FC0180819181009709F44BC089819A81B6
S1133240805C9F4FFC01208131818B819C8149816D
S11332505A81220F331F240F351FF9012081318138
S1133260FC013183208389819A81805C9F4FFC011A
S1133270808191819C012F5F3F4F89819A81805C7D
S11332809F4FFC013183208389819A81805C9F4F09
S1133290FC01808191818F31910541F038F0898161
S11332A09A81805C9F4FFC011182108289819A81EE
S11332B08E5B9F4FFC01808191819C0121503109DB
S11332C089819A818E5B9F4FFC013183208381E049
S11332D001C080E00F900F900F900F90DF91CF917D
S11332E00895CF93DF9300D000D0CDB7DEB79A8393
S11332F089837C836B8300000F900F900F900F9055
S1133300DF91CF910895CF93DF9300D0CDB7DEB78F
S11333109A83898389819A81FC0110A289819A8187
S1133320FC0111A200000F900F90DF91CF9108953E
S1133330CF93DF9300D0CDB7DEB79A838983898199
S11333409A8101960E947B0000000F900F90DF91FC
S1133350CF910895CF93DF9300D0CDB7DEB79A8392
S1133360898389819A810E94981989819A81FC01B3
S1133370138200000F900F90DF91CF910895CF93A7
S1133380DF9300D0CDB7DEB79A83898389819A8190
S113339001960E947B0000000F900F90DF91CF9167
S11333A00895CF93DF9300D0CDB7DEB79A83898396
S11333B089819A810E94BF1989819A81FC011382B3
S11333C000000F900F90DF91CF910895CF93DF937A
S11333D000D000D0CDB7DEB79A8389837C836B831A
S11333E089819A812B813C81FC01318320838981ED
S11333F09A81FC018081918188960E941E018981B5
S11334009A81FC012081318189819A810396BC01D2
S1133410C9010E94001F282F89819A81FC012283FF
S113342000000F900F900F900F90DF91CF910895AF
S11334300F931F93CF93DF93CDB7DEB72B970FB6C0
S1133440F894DEBF0FBECDBF9C838B837E836D83D8
S113345058874F8329871B870A878B819C812D81FD
S11334603E81DC012D933C938B819C81FC01808106
S1133470918188960E941E018A859B85DC012C918E
S11334808B819C81FC0126838B819C81DC01ED91E5
S1133490FC918B819C81DC0116963C918F819885EF
S11334A02985432FBC01CF010E94181F9A83898369
S11334B029818B819C81FC0123832A818B819C81BE
S11334C0DC0119962C938B819C81FC018381998565
S11334D0292F281B8B819C81DC0112962C938B81D4
S11334E09C81FC018381882F90E02F813885280FEF
S11334F0391F8B819C81DC0115963C932E93149784
S113350000002B960FB6F894DEBF0FBECDBFDF913F
S1133510CF911F910F910895CF93DF9300D000D0E6
S11335200F92CDB7DEB79A8389837C836B834D83F7
S113353089819A812B813C81FC013183208389819B
S11335409A812D81FC01228389819A81FC018081E9
S1133550918102960E941E0189819A81FC018081D9
S11335609181FC01808191816D810E94AF0188234A
S113357031F089819A8121E0FC01238304C089818F
S11335809A81FC01138200000F900F900F900F900E
S11335900F90DF91CF910895CF93DF9300D000D0A7
S11335A000D00F92CDB7DEB79A8389837C836B8377
S11335B05E834D832F8389819A812B813C81FC0119
S11335C03183208389819A81FC01808191810296D3
S11335D00E941E0108C08F8181508F838D819E813E
S11335E001969E838D838F818823A1F089819A819E
S11335F0FC0180819181FC01208131818D819E813A
S1133600FC018081682FC9010E94AF01882311F059
S113361081E001C080E08823F1F68F81882389F05E
S113362089819A812F81FC01248389819A812D814A
S11336303E81FC013383228389819A81FC011582B6
S113364005C089819A8121E0FC0125830000279629
S11336500FB6F894DEBF0FBECDBFDF91CF910895B2
S1133660CF93DF9300D0CDB7DEB79A838983898166
S11336709A81FC0183810F900F90DF91CF9108957F
S1133680CF93DF9300D000D000D0CDB7DEB79C83BA
S11336908B837E836D838B819C81FC0181A180322D
S11336A011F480E026C02B813C818B819C81FC013C
S11336B040A18B819C81FC0181A1840F882F90E023
S11336C08F719927820F931F9A8389838D819E819D
S11336D0FC01208189819A81FC0120838B819C815A
S11336E0FC0181A121E0280F8B819C81FC0121A395
S11336F081E00F900F900F900F900F900F90DF913B
S1133700CF910895CF93DF9300D0CDB7DEB79A83DE
S1133710898389819A81FC01138200000F900F90A4
S1133720DF91CF910895CF93DF93CDB7DEB70E9499
S11337307A01DF91CF910895CF93DF9300D000D029
S11337400F92CDB7DEB79B838A837D836C838A8196
S11337509B818C5B9F4F0E941E018A819B819E01ED
S11337602C5F3F4FB9010E94641F89838A819B812A
S11337708C5B9F4F0E94450189810F900F900F90A1
S11337800F900F90DF91CF910895CF93DF9300D0E6
S1133790CDB7DEB79A83898389819A81FC018381BD
S11337A00F900F90DF91CF910895CF93DF9300D0C6
S11337B0CDB7DEB79A83898389819A81FC0113820C
S11337C000000F900F90DF91CF910895EF92FF9238
S11337D00F931F93CF93DF9300D000D0CDB7DEB704
S11337E09A8389837C836B832B813C8189819A8131
S11337F0B9010E94711989819A810E940D01898100
S11338009A81029600E010E07C0108C0C7010E9482
S1133810BA1F0150110986E0E80EF11C1123B4F718
S1133820000000000F900F900F900F90DF91CF9148
S11338301F910F91FF90EF900895CF93DF9300D0E5
S113384000D000D00F92CDB7DEB79A8389834B8323
S11338505C836D837E832F8389819A81FC0110822E
S1133860FC011182FC011282FC011382FC0114820E
S1133870FC011582FC011682FC0117828B819C815C
S1133880AD81BE81E981FA81232FAC01BD01CF0155
S11338900E94541C000027960FB6F894DEBF0FBE9A
S11338A0CDBFDF91CF910895CF93DF93CDB7DEB72E
S11338B060970FB6F894DEBF0FBECDBF9F838E8393
S11338C0488759876A877B872C87198280E090E034
S11338D0A0E8BFE38A839B83AC83BD8328853985B5
S11338E04A855B8560E070E080E89FE30E940620E3
S11338F06D877E878F87988B8D859E85AF85B889E8
S11339002E813F81F90184879587A687B7870000B8
S113391060960FB6F894DEBF0FBECDBFDF91CF9196
S11339200895CF93DF9300D00F92CDB7DEB79B837A
S11339308A83198298C08981282F30E04A815B816B
S1133940C901880F991F820F931F880F991F840F35
S1133950951F0296FC0180819181A281B381009719
S1133960A105B10509F47BC081309105A105B1051C
S113397009F048C08981282F30E04A815B81C90160
S1133980880F991F820F931F880F991F840F951F0B
S11339900296FC0180819181A281B381AC01BD01B9
S11339A04150510961097109EA81FB81C901880FFC
S11339B0991F820F931F880F991F8E0F9F1F0296C6
S11339C0DC014D935D936D937C9313970E94931B3D
S11339D0FC018981882F90E04A815B819C012F5FE3
S11339E03F4FC901880F991F820F931F880F991F9A
S11339F0840F951FDC018D919C91BC01CF010E9425
S1133A009C1B2EC08981282F30E04A815B81C9012B
S1133A10880F991F820F931F880F991F840F951F7A
S1133A200296FC0180819181A281B381AC01BD0128
S1133A304150510961097109EA81FB81C901880F6B
S1133A40991F820F931F880F991F8E0F9F1F029635
S1133A50DC014D935D936D937C93139701C000003B
S1133A6089818F5F89838981882309F464CF000069
S1133A7000000F900F900F90DF91CF910895CF9396
S1133A80DF9300D000D0CDB7DEB79A8389837C83DF
S1133A906B8329813A818B819C81FC018081918196
S1133AA0A281F90180839183A28389819A8121E093
S1133AB0FC01238389819A810F900F900F900F90BE
S1133AC0DF91CF910895CF93DF9300D000D0CDB78D
S1133AD0DEB79A8389837C836B8329813A818B81C6
S1133AE09C81FC0180819181A281F9018083918371
S1133AF0A28389819A8121E0FC01238389819A81AF
S1133B000F900F900F900F90DF91CF910895CF9366
S1133B10DF9300D000D0CDB7DEB79A8389837C834E
S1133B206B8389819A81FC0181A1882389F1898130
S1133B309A81FC0180A1882F90E029813A81820F2B
S1133B40931FFC0120818B819C81FC01208389814E
S1133B509A81FC0180A121E0280F89819A81FC01CE
S1133B6020A389819A81FC0180A18F3129F020F062
S1133B7089819A81FC0110A289819A81FC0181A129
S1133B802FEF280F89819A81FC0121A381E001C0D4
S1133B9080E00F900F900F900F90DF91CF910895D8
S1133BA08F929F92AF92BF92CF92DF92EF92FF9249
S1133BB0CF93DF93CDB7DEB7A9970FB6F894DEBFE6
S1133BC00FBECDBF9F838E83798768878DEF8983EE
S1133BD08FE692E1A3E8BAE38A839B83AC83BD8337
S1133BE0888599859C0140E050E02E8F3F8F48A343
S1133BF059A36E8D7F8D88A199A10E94E3206A87C5
S1133C007B878C879D878E819F81FC018485958528
S1133C10A685B7859C01AD016A857B858C859D85CC
S1133C200E94AA216AA37BA38CA39DA32AA13BA1E2
S1133C304CA15DA12E873F87488B598B2FE632E13B
S1133C4043E85AE36E857F85888999890E94AA2171
S1133C506EA37FA388A799A78EA19FA1A8A5B9A5A4
S1133C608A8B9B8BAC8BBD8B6A897B898C899D8964
S1133C700E947D202E8B3F8B488F598F6A8F7B8FBC
S1133C808C8F9D8F8E889F88A88CB98CCA8CDB8C76
S1133C90EC8CFD8C282D392D4A2D5B2D6C2D7D2D22
S1133CA08E2D9F2DA9960FB6F894DEBF0FBECDBF03
S1133CB0DF91CF91FF90EF90DF90CF90BF90AF90C6
S1133CC09F908F900895CF93DF93CDB7DEB7289759
S1133CD00FB6F894DEBF0FBECDBF9A8389834B83A2
S1133CE05C836D837E8338872F8329813A818B811E
S1133CF09C81AD81BE81F90180839183A283B383CA
S1133D0089819A812F813885FC01358324830000C1
S1133D1028960FB6F894DEBF0FBECDBFDF91CF91CA
S1133D200895CF93DF93CDB7DEB72F970FB6F894EE
S1133D30DEBF0FBECDBF998788877B876A872C87B4
S1133D403D874E875F87888599850E941E01198269
S1133D5045C08981282F30E048855985C901880FDD
S1133D60991F820F931F880F991F840F951F029626
S1133D70FC0180819181A281B3810097A105B105E5
S1133D8051F58C859D85AE85BF852A853B85FE01D1
S1133D903296AC01BD01CF010E94D31F8981282F27
S1133DA030E048855985C901880F991F820F931FF8
S1133DB0880F991F840F951F029626E0FE01329604
S1133DC0DC0101900D922A95E1F7888599850E947E
S1133DD0450181E00CC089818F5F898389818823B3
S1133DE009F4B7CF888599850E94450180E02F9614
S1133DF00FB6F894DEBF0FBECDBFDF91CF9108950B
S1133E00CF93DF9300D000D0CDB7DEB79A838983F8
S1133E107C836B8389819A812B813C81B9010E94C7
S1133E20871D0F900F900F900F90DF91CF91089501
S1133E300F931F93CF93DF93CDB7DEB728970FB6B9
S1133E40F894DEBF0FBECDBF9C838B837E836D83CE
S1133E504F832887198226C08B819C819E012E5F07
S1133E603F4FB9010E94871D982F81E0892788233D
S1133E7019F0098110E01CC02A818D819E81FC010A
S1133E8020838D819E8101969E838D838A819F816B
S1133E90981729F489818F5F082F11E009C089815F
S1133EA08F5F8983998188859817B0F2088511E01E
S1133EB0C80128960FB6F894DEBF0FBECDBFDF91C0
S1133EC0CF911F910F910895CF93DF9300D000D02D
S1133ED000D0CDB7DEB79C838B837E836D838B81CB
S1133EE09C818E5B9F4FFC01808191818032910582
S1133EF011F480E036C02B813C818B819C81805CF5
S1133F009F4FFC01408151818B819C818E5B9F4F2F
S1133F10FC0180819181840F951F8F719927880FEF
S1133F20991F820F931F9A83898389819A812D8196
S1133F303E81F90120813181FC01318320838B8111
S1133F409C818E5B9F4FFC01808191819C012F5F3E
S1133F503F4F8B819C818E5B9F4FFC01318320837B
S1133F6081E00F900F900F900F900F900F90DF91C2
S1133F70CF910895CF93DF9300D0CDB7DEB79A8366
S1133F80898389819A81FC011082118212821382B1
S1133F9089819A8104960E947B0000000F900F9003
S1133FA0DF91CF910895CF93DF93CDB7DEB72897F4
S1133FB00FB6F894DEBF0FBECDBF9A8389834B83BF
S1133FC05C836D837E8338872F8329813A818B813B
S1133FD09C81AD81BE81F90180839183A283B383E7
S1133FE089819A812F813885FC01358324830000DF
S1133FF028960FB6F894DEBF0FBECDBFDF91CF91E8
S113400008950E94202108F481E008950E941A2056
S11340100C946B210E94642158F00E945D2140F0B1
S113402029F45F3F29F00C94442151110C949F21F1
S11340300C944A210E947C2168F39923B1F35523FF
S113404091F3951B550BBB27AA27621773078407A7
S113405038F09F5F5F4F220F331F441FAA1FA9F33D
S113406035D00E2E3AF0E0E832D091505040E6952B
S1134070001CCAF72BD0FE2F29D0660F771F881F8C
S1134080BB1F261737074807AB07B0E809F0BB0B7F
S1134090802DBF01FF2793585F4F3AF09E3F510593
S11340A078F00C9444210C949F215F3FE4F3983EF4
S11340B0D4F3869577956795B795F7959F5FC9F77C
S11340C0880F911D9695879597F90895E1E0660FFD
S11340D0771F881FBB1F621773078407BA0720F076
S11340E0621B730B840BBA0BEE1F88F7E0950895DF
S11340F0BEE304D008F490E80895BFE322273327F1
S1134100A9010E94842160F19F5748F1B91740F139
S1134110BFE3B91B9927B8503AF4660F771F881F7D
S1134120991FB395D2F316C0B8504AF0232F342FF9
S1134130452F562F672F782F8827B850BAF7B85FC6
S113414049F08695779567955795479537952795BF
S1134150BA95B9F716F40E944D218894089588946D
S113416060E070E0CB0108950E94842188F09F579D
S113417098F0B92F9927B751B0F0E1F0660F771F87
S1134180881F991F1AF0BA95C9F714C0B13091F07D
S11341900E949E21B1E008950C949E21672F782FF0
S11341A08827B85F39F0B93FCCF386957795679542
S11341B0B395D9F73EF490958095709561957F4FAE
S11341C08F4F9F4F0895E89409C097FB3EF4909554
S11341D08095709561957F4F8F4F9F4F9923A9F0DC
S11341E0F92F96E9BB279395F6958795779567956B
S11341F0B795F111F8CFFAF4BB0F11F460FF1BC0AF
S11342006F5F7F4F8F4F9F4F16C0882311F096E941
S113421011C0772321F09EE8872F762F05C06623EF
S113422071F096E8862F70E060E02AF09A95660FA8
S1134230771F881FDAF7880F9695879597F9089561
S1134240990F0008550FAA0BE0E8FEEF16161706A3
S1134250E807F907C0F012161306E407F50798F00B
S1134260621B730B840B950B39F40A2661F0232B24
S1134270242B252B21F408950A2609F4A140A695A0
S11342808FEF811D811D089597F99F6780E870E085
S113429060E008959FEF80EC089590958095709567
S11342A0609550954095309521953F4F4F4F5F4F06
S11342B06F4F7F4F8F4F9F4F089500240A94161617
S11342C0170618060906089500240A941216130600
S11342D0140605060895092E0394000C11F488238E
S11342E052F0BB0F40F4BF2B11F460FF04C06F5FAA
S11342F07F4F8F4F9F4F089557FD9058440F551F80
S113430059F05F3F71F04795880F97FB991F61F053
S11343109F3F79F087950895121613061406551FCA
S1134320F2CF4695F1DF08C0161617061806991F36
S1134330F1CF86957105610508940895E894BB272B
S113434066277727CB0197F908950E94202108F466
S11343508FEF08950E94BD210C946B210E945D2172
S113436038F00E94642120F0952311F00C9444212C
S11343700C944A2111240C949F210E947C2170F3F7
S1134380959FC1F3950F50E0551F629FF001729FF6
S1134390BB27F00DB11D639FAA27F00DB11DAA1F05
S11343A0649F6627B00DA11D661F829F2227B00D52
S11343B0A11D621F739FB00DA11D621F839FA00DDD
S11343C0611D221F749F3327A00D611D231F849F2D
S11343D0600D211D822F762F6A2F11249F57504084
S11343E09AF0F1F088234AF0EE0FFF1FBB1F661FFF
S11343F0771F881F91505040A9F79E3F510580F0C8
S11344000C9444210C949F215F3FE4F3983ED4F331
S1134410869577956795B795F795E7959F5FC1F76B
S1134420FE2B880F911D9695879597F90895A1E223
S11344301A2EAA1BBB1BFD010DC0AA1FBB1FEE1F1A
S1134440FF1FA217B307E407F50720F0A21BB30B65
S1134450E40BF50B661F771F881F991F1A9469F7E1
S113446060957095809590959B01AC01BD01CF013D
S11344700895EE0FFF1F0590F491E02D0994002498
S1134480A7FD00942A0F301D401D501D601D701D96
S1134490801D901D08950F931F93CF93DF939C016C
S11344A0029710F422E030E0E0915401F0915501BC
S11344B080E090E0A0E0B0E0309791F4009709F438
S11344C045C0821B930B84309105B8F58A819B818A
S11344D06115710569F1FB0193838283FE0111C0AB
S11344E0408151810281138142175307F0F0421732
S11344F0530799F4109761F012960C931297139640
S11345001C933296CF01DF91CF911F910F910895A3
S11345100093540110935501F4CF009719F04817F4
S1134520590718F4CA01BD01EF01DF01F801C4CF36
S11345309093550180935401D1CFFE01E80FF91FE8
S113454021933193029799838883DCCF809156011C
S113455090915701892B41F48091020190910301BC
S1134560909357018093560180910001909101012D
S1134570009741F48DB79EB7409104015091050115
S1134580841B950B409156015091570148175907C8
S113459008F0B8CF841B950B8217930708F4B2CFA9
S11345A0B9016E5F7F4F8617970708F4ABCF640F8E
S11345B0751F7093570160935601FA01219331934B
S11345C0A1CFCF93DF939C010097D9F0FC013297E0
S11345D013821282A0915401B0915501109709F0F1
S11345E086C080819181280F391F80915601909156
S11345F057018217930709F05FC0F0935701E093C6
S11346005601DF91CF910895CE17DF0708F059C006
S1134610AE010A80DB81C02D2097B1F7EA01FB834C
S1134620EA8329913991CE01820F931FE817F90784
S113463061F4808191810296820F931FEA0199832C
S11346408883828193819B838A83E0E0F0E01296E1
S11346508D919C911397009709F04EC0ED018991BB
S113466099918C0F9D1F2091560130915701281765
S1134670390739F6309709F042C01092550110926B
S11346805401B0935701A0935601BBCFB383A283C7
S113469080819181280F391FA217B30769F402960C
S11346A02D913C911197820F931F918380831296D1
S11346B08D919C9193838283F0935501E0935401EF
S11346C0A0CFD383C28380819181280F391FC21761
S11346D0D30709F0A3CF029628813981820F931F53
S11346E0918380838A819B819383828397CFAE1742
S11346F0BF0760F6ED018CCFFD01DC01A8CF13826A
S11347001282BFCF81E090E0F8940C948723F89450
S1134710FFCF260BBB060507BB068C07BB0611089B
S1134720BB064C08BB06E708BB062209BB065E09AC
S1134730BB06A009BB06E909BB062C0ABB06620A34
S1134740BB06C20ABB061E0BBB06BB06D106EC06A3
S11347500607EC068D07EC061208EC064D08EC067D
S1134760E808EC062309EC065F09EC06A109EC064F
S1134770EA09EC062D0AEC06630AEC06C30AEC0609
S10947801F0BEC06EC0621
S113478600001D02200065787065637420275C6E46
S1134796270A002A2A2A2A2A2A2A2A2A2A737265F0
S11347A66720626563616D65203020737472616E83
S11347B66765212121007477696365206C6F636BDB
S11347C600747769636520756E6C6F636B00000314
S10747D606080A00C3
S9030000FC
