S0100000503030345F50574D2E73726563DD
S11300000C9434000C9446000C9446000C94460066
S11300100C9446000C9446000C9446000C94460044
S11300200C9446000C9446000C9446000C94460034
S11300300C9446000C9446000C9457000C94460013
S11300400C9446000C9446000C9446000C94460014
S11300500C9446000C9446000C9446000C94460004
S11300600C9446000C94460011241FBECFEFD8E038
S1130070DEBFCDBF21E0A0E0B1E001C01D92A13000
S1130080B207E1F70E9462000C946E000C94000029
S113009082E684BD81E485BD80E587BD82E388BDB9
S11300A016BCEEE6F0E080818260808308951F92A2
S11300B00F920FB60F9211245D9A0F900FBE0F90FE
S11300C01F90189580E284B985B98FEF8AB90E9490
S11300D0480081E0809300017894FFCFF894FFCF2B
S9030000FC
